:020000040000FA
:100000000038002051070000850700008707000026
:1000100000000000000000000000000000000000E0
:100020000000000000000000000000008907000040
:1000300000000000000000008B0700008D0700009A
:100040008F0700008F0700008F0700008F07000058
:100050008F0700008F0700008F0700008F07000048
:100060008F0700008F0700008F0700008F07000038
:100070008F0700008F070000251B00008F0700007E
:100080008F0700008F0700008F0700008F07000018
:100090008F0700008F0700008F0700008F07000008
:1000A0008F0700008F0700008F0700008F070000F8
:1000B0008F0700008F0700008F0700008F070000E8
:10040000FFFFFFFFFFFFFFFFFFFFFFFFFEFFFFFFFD
:1004100000F002F800F08BF90CA030C8083824185E
:100420002D18A246671EAB4654465D46AC4201D12C
:1004300000F07DF97E460F3E0FCCB64601263342D2
:1004400000D0FB1AA246AB463343184774020000A3
:1004500094020000103A02D378C878C1FAD8520743
:1004600001D330C830C101D504680C60704700006A
:100470000023002400250026103A01D378C1FBD8C0
:10048000520700D330C100D50B6070470102030052
:100490000000000008ED00E03031323334353637EB
:1004A00038394142434445464030580030313233B8
:1004B00034353637383961626364656640307800B8
:1004C000040000080000000000000002000100001D
:1004D0001000000002400000000000A0000000002A
:1004E00005400000000000C8000000000C400000B3
:1004F0000000409C00000000194000000020BCBE2D
:100500000000000034400000BFC91B8E0000000442
:10051000B5400000504BCFD06607E2CF010000008D
:100520006C4100003E8251AADFEEA73401000000BA
:10053000D9420000DCB5A0E23A301F97FFFFFFFF71
:10054000B4450000FD25A0C8E9A3C14FFFFFFFFF90
:10055000FF3F00000000008000000000FF3F00009F
:100560000000008000000000244750524D432C3012
:10057000252E32662C412C333135382E3436303826
:100580002C4E2C31313834382E333733372C452C20
:1005900031302E30352C3332342E32372C31353049
:1005A0003730362C2C2C412A0000000024475052B2
:1005B0004D432C3030252E32662C412C33313538CA
:1005C0002E343630382C4E2C31313834382E3337E7
:1005D00033372C452C31302E30352C3332342E32FB
:1005E000372C3135303730362C2C2C412A00000086
:1005F000244750524D432C303030252E32662C414A
:100600002C333135382E343630382C4E2C313138AD
:1006100034382E333733372C452C31302E30352CAF
:100620003332342E32372C3135303730362C2C2CB7
:10063000412A0000244750524D432C3030303025A1
:100640002E32662C412C333135382E343630382C4E
:100650004E2C31313834382E333733372C452C314A
:10066000302E30352C3332342E32372C3135303772
:1006700030362C2C2C412A00244750524D432C302C
:1006800030303030252E32662C412C333135382E27
:10069000343630382C4E2C31313834382E33373311
:1006A000372C452C31302E30352C3332342E323726
:1006B0002C3135303730362C2C2C412A00000000EC
:1006C00040250000C0000020240000005404000069
:1006D00064250000E4000020D80000007004000041
:1006E0001C00000043000000F8FFFFFF0C000000AA
:1006F0000E0000000F0000002E00000010B566295B
:1007000002D101F015FF10BD782902D100F08AF85E
:1007100010BD002010BD1FB500F07EFD04000020BC
:10072000002101F091FEE0601FBD10B510BD04482E
:100730008546FFF7F0FF01F057FD01F05EF900007C
:100740000038002003B4FFF7F0FF03BC01F0D2F93A
:1007500072B60F490F4A521A013A05DD00200423F0
:1007600008601944043AFBDA00BF0B480B490160EA
:100770000A6882F308880A4880470A48804762B6B8
:1007800009480047FEE7FEE7FEE7FEE7FEE7FEE773
:10079000000000200038002008ED00E0000000000C
:1007A000A120000091210000110400000FB41CB52D
:1007B000074B06AA7B4469460090059800F099FC17
:1007C0000020694600F0A8FC1CBC08BC04B0184717
:1007D0006109000070B5044685690068C10601D54D
:1007E000302600E02026C00707D070BD6268304682
:1007F000A1689047206A401C20626D1EF6D570BD2E
:1008000070B5044685690078C00707D170BD62687D
:10081000A16820209047206A401C20626D1EF6D5FA
:1008200070BD000070B504460D4621461068C046F4
:10083000C0462188090502D50F4A7A4402E00E4AD3
:100840007A440E3223460021243305E006070009CE
:10085000360F965D5E54491C0028F7D1207800239E
:10086000000705D5702D03D0002901D002231132D5
:10087000204600F0D4F970BD5AFCFFFFF3B50446E2
:10088000002081B020622046E168884700287DD0A2
:10089000252802D06268A16883E0454F00257F4487
:1008A0002046E16888472028064608DB312E06D21C
:1008B000B81920380078002801D00543F0E7A807D0
:1008C00001D5042085430020E0610746A0612A2E5F
:1008D0000AD0304601F042FC002827D0B8000019A9
:1008E000303E0090866119E00298BA00121902C8E1
:1008F000916102902046E1688847012F064617D192
:10090000E06900281FDA202085431CE000980A21B6
:100910008069484300998019303888612046E16831
:100920008847064601F01AFC0028EFD1012F0AD0B3
:100930002E2E08D12046E168884706462020054330
:100940007F1C022FC3DBA069002803DA4042A061AC
:1009500001200543E80701D010208543002E24D054
:1009600030464138192803D80120C00205432036FB
:10097000204625603146029A1546FFF7BFFE002843
:100980000CD0012807D0ED1DE80800E00DE0C00004
:100990000830029077E72D1D029574E762683046B3
:1009A000A1689047206A401C6CE7206AFEBD0000E9
:1009B0001EFCFFFF30B5441C03E00178401C0029F9
:1009C0000DD08107F9D10B4BDD0104C8D11A914339
:1009D0002940FAD0001B0A0603D0C01E30BD001B00
:1009E00030BD0A0401D0801E30BD0902FCD0401E7B
:1009F00030BD000001010101421E5378521C002B42
:100A0000FBD10B78491C1370521C002BF9D1704795
:100A1000002203098B422CD3030A8B4211D30023FB
:100A20009C464EE003460B433CD4002243088B42D5
:100A300031D303098B421CD3030A8B4201D3944662
:100A40003FE0C3098B4201D3CB01C01A5241830955
:100A50008B4201D38B01C01A524143098B4201D30F
:100A60004B01C01A524103098B4201D30B01C01A3A
:100A70005241C3088B4201D3CB00C01A52418308B4
:100A80008B4201D38B00C01A524143088B4201D3E1
:100A90004B00C01A5241411A00D201465241104641
:100AA00070475DE0CA0F00D04942031000D34042B6
:100AB000534000229C4603098B422DD3030A8B42EC
:100AC00012D3FC22890112BA030A8B420CD389018A
:100AD00092118B4208D3890192118B4204D3890170
:100AE0003AD0921100E08909C3098B4201D3CB01AE
:100AF000C01A524183098B4201D38B01C01A524163
:100B000043098B4201D34B01C01A524103098B4266
:100B100001D30B01C01A5241C3088B4201D3CB0051
:100B2000C01A524183088B4201D38B00C01A524134
:100B3000D9D243088B4201D34B00C01A5241411A0B
:100B400000D20146634652415B10104601D3404239
:100B5000002B00D54942704763465B1000D34042EA
:100B600001B50020C046C04602BD00000121C905F4
:100B70000123411842001B06D3185B0E0AD0C11096
:100B80000722D206891840075242D14201D55200AD
:100B900089187047090208D50146002A03D0C10F01
:100BA000C9070020704710467047420202D000205B
:100BB00002497047072109050143F4E70000F87F67
:100BC0001F22030C02D10F2200041CD0030E01D1FE
:100BD0000002083A030F01D10001121F830F01D157
:100BE0008000921E002801DB4000521ED2055118E1
:100BF000021251181922904004D3491C002801D137
:100C00004908490008467047C10FC90700D0404253
:100C1000012292071143D3E701218907D0E7FFB5ED
:100C200004460D4681B0243000902168880604D522
:100C30001022E0699143216000E00120A84201DD1B
:100C4000471B00E000270498A1697A191018081AB8
:100C5000A0612078C00602D42046FFF7BBFD002625
:100C600008E003986268A168805D9047206A401C94
:100C7000761C206204988642F3DB2078C0060AD5F1
:100C80002046FFF7A7FD06E06268A1683020904784
:100C9000206A401C206238467F1E0028F4DC07E0F2
:100CA00000986268A168405D9047206A401C2062FD
:100CB00028466D1E0028F3DC2046FFF7A1FD2078B2
:100CC000000602D5022005B0F0BD0120FBE70000C0
:100CD0007047FFB50C461E468FB003CA08900991B5
:100CE0004F007D0D00D16D1E002108460020C0463A
:100CF0000321099A89050840002A03DA8200801836
:100D000040080840800D01280A9002DD0020C04301
:100D10000A90089807430DD0F048F1492818484335
:100D20000714189800281DD07542291E1DDD0A9849
:100D300042421BE01898012802D00020302104E034
:100D40000020F24305E02154401CB042FBDB30465A
:100D50000022189B002121540F998B600A60486083
:100D600013B0F0BDBD1B6D1CDFE70A9A002900DA45
:100D700069420BA800F0D6FA0BAB07CB03AB07C355
:100D80000899099800F03AFB6B4607C30146D5481D
:100D90000918002D00910BDDD24903980A9A4942A7
:100DA0004018002303A90390684600F097FD08E06F
:100DB00003990A9A0023081803A90390684600F0D3
:100DC00037FD6B4607C30004000C03D00020C0436E
:100DD000410800E01046189A002A03D00022009231
:100DE00015461EE0751E05D400F01AFA3032625521
:100DF0006D1EF9D501220843079602D000227F1C00
:100E000004E02078302801D100227F1E002A0697B6
:100E100087D01EE0112D07DA00F002FA3032625559
:100E20006D1C02460A43F5D1084303D00098002800
:100E300019D00EE00021681E05E0235C625C63545B
:100E40002254401E491C8142F7DBA81B401E079517
:100E50000690079A18990020A0540F98079B069AAD
:100E600081600CC07CE711260020189059E7D21D44
:100E7000F0B50D460446D10893B0C90003C90C90E3
:100E80000D9101F055F902460D98C00F01D02D20AB
:100E900007E02068810701D52B2002E04007C00F42
:100EA0004001032A0F9001D0072A05DB034629469B
:100EB000204600F0F3F90EE12078800601D5E769BD
:100EC00000E006272846652D04D0662814D0672D3B
:100ED00069D12DE00020112F009001DB112300E0EB
:100EE0007B1C0CAA03A910A8FFF7F3FE119900269A
:100EF00010987D1C0E9142E001203B460CAAC007D1
:100F00000B900120009003A910A8FFF7E2FE119DAD
:100F100012981099002600280E9501D1781C0D1802
:100F2000781B02D446427D1C761EE81B00903AE0F6
:100F3000012F00DA01270020112F009001DD11237D
:100F400000E03B460CAA03A910A8FFF7C2FE1199C6
:100F50003D46109800260E91217809070BD40E9972
:100F6000A94200DA0D4603A9012D04DD4A19203AF1
:100F7000D27F302A06D0B84201DA011D04DA0121FD
:100F800000910FE06D1EEFE7002802DC86192D1A94
:100F900003E0411CA94200DD0D46801B401C00906F
:100FA0000120C0070B902078000705D40098A842C4
:100FB00002DB0020C043009069460020C8720B98F5
:100FC000012102AF0337C907884225D002201090C3
:100FD0002B2011900B9800280BDA40420B902D200B
:100FE000119006E00B9800F0C9FC30317F1E0B9089
:100FF00039701099481E00291090F3DC0B980028D6
:10100000F0D111987F1E38702088000501D5452049
:1010100000E065207F1E387001A8C01BC01D0B902A
:101020000F98002800D0012041190098C017091816
:101030000B980818A169081A401EA0612078C00604
:1010400002D42046FFF7C6FB0F98002805D062683F
:10105000A1689047206A401C20622078C00625D5F0
:101060002046FFF7B7FB21E0002E07DB0E98B042C9
:1010700004DD03A86268805DA16802E06268A1687F
:1010800030209047206A761C401C20620098401E49
:10109000002800900AD100F0BFF8C06862680168BB
:1010A000405CA1689047206A401C206228466D1E63
:1010B0000028D9DC07E062683878A1687F1C904777
:1010C000206A401C20620B99481E00290B90F2DC1C
:1010D0002046FFF795FB032042E6000001FCFFFFDE
:1010E000104D0000E1DFFFFF01694A1C0261087832
:1010F000704700B58FB00291002105910549019319
:1011000079440391114604906846FFF7B7FB0FB08E
:1011100000BD0000E5FFFFFF0A681070521C0A6066
:1011200070470000F8B5224C4E00069DA6420AD832
:10113000A64201D1002806D15E00A64203D8A642ED
:101140000AD1002A08D00D24240425422CD0294697
:10115000002000F027FCF8BD0C461C430CD499423B
:1011600002D0EFF30080F8BD904202D0EFF3008090
:10117000F8BDEFF30080F8BD09242407E5008B4299
:1011800006D0EFF30080A043591A06D2284304E0AA
:10119000101A05D3EFF30080A04380F30088F8BD58
:1011A000EFF30080A043F1E7009500F013FCF8BDD9
:1011B0000000E0FF10B5FF231B0644009C421DD831
:1011C0004C009C421AD80346124A0B4307D4401ADB
:1011D00002D3EFF3008010BDEFF3008010BD081ABA
:1011E00006D2EFF3008001219043C907084302E0D3
:1011F000EFF30080904380F3008810BD0D231B04A3
:101200001A4204D01146002000F0CCFB10BD00F0C3
:10121000EBFB10BD00000090004870477C010020EF
:101220000B4670B5024689078008084319469D0899
:10123000141AA94125090807054308092C19484132
:10124000250A01060D43010A2C194141200C0D0409
:1012500028430D0C00194D41002140194D41C00893
:1012600069070843E908840F8D002543840024188A
:101270004D4124196D41121BAB4107E00925ED4397
:101280002C11521963410024401C61411C460A255F
:101290000026551BB441F1D270BD0000F8B51F46C1
:1012A000044601230068DB02032601461840072A92
:1012B00005DB002801D017A506E017A504E00028EB
:1012C00001D016A500E016A5102081432160A06979
:1012D000C01E002FA06101D0401EA0612046FFF774
:1012E00079FA002F09D038466268A1689047206AD1
:1012F000401C2062C01C206206E0206AFAE7626897
:101300002878A1686D1C9047761EF8D22046FFF71A
:1013100077FAF8BD4E414E006E616E00494E4600B0
:10132000696E6600F7B516468AB0334878446C4655
:1013300003467C33C06F5A689B680DC42E487844BE
:10134000763003AC0DC80DC43720C0010818372112
:101350001B30FFF767FB05460C46803D1B3C02D562
:101360006442012000E000200027099010E0E0071F
:101370000CD00C2020497843794432464C3941182E
:101380006846012300F054FA6B4607C364107F1CC3
:10139000002CECD1184F7F442E3F16E0E80712D006
:1013A0002001C0190EC80691089307920068F04208
:1013B00001D1981908903246012306A903A800F02C
:1013C00037FA03AB07C36D10641C002DE6D10998F2
:1013D000002806D032466946012303A800F07EFAB1
:1013E00005E001233246694603A800F021FA0A9B72
:1013F00007C30DB0F0BD0000A4F1FFFF034640009D
:101400000A4610B5400D0BD00121C9070F24A402D4
:1014100000191C0364082143540D2143D20207E044
:1014200000210120F2E7D40F490021435200401E61
:101430000029F8DADB0FDB07184310BDFFB50D46B6
:10144000144685B04868516800F04CFE0091019048
:10145000A868A16800F046FE02910390A868616840
:1014600000F040FE029A12188242029201D201203C
:1014700000E00020019A0B18D2180028019202D037
:101480008A4202D903E08A4201D2012000E0002012
:101490000099081800906868A16800F023FE029A7D
:1014A00012188242029201D2012000E00020019A2B
:1014B0000B18D2180028019202D08A4202D903E008
:1014C0008A4201D2012000E0002000990818009013
:1014D0002868216840004900400849084018FA4936
:1014E000471814E001994000C90F08430090019883
:1014F00002994000C90F08430190029803994000E7
:10150000C90F08430290039840007F1E0390009883
:101510000028E7DA0898002801D0EC4E00E0002609
:10152000B74201DA012000E00020002804902AD010
:10153000F71BF806C00E15D0029B2021091A039A4A
:101540008B401A430392029A019BC2408B401A437C
:101550000292019A009BC2408B4000991A4301926B
:10156000C14000917B110DD06F460320C11A03D5F5
:1015700000218200B95003E08A008100BA587A50F5
:10158000401EF3D5374603980299002800D0012069
:10159000014308980291002808460CD0002800D08A
:1015A00001200199019A490508430121D20AC90283
:1015B000D202019200E001210E9B0122D207012BF1
:1015C00002D0002B03D013E0002807D120E0904286
:1015D00004D890420CD1019B0B4209D0019B5918B1
:1015E000019105D10099491C009101D17F1C009205
:1015F00000280DD0102108460020C046049800287D
:1016000006D00F98002803D0082108460020C046C5
:1016100028682168019B009A4840C10F0598C907B6
:1016200039430EC009B0F0BDFFB587B0099A0898DC
:101630000899536892684068896896460022039327
:1016400017469446089A12685300099A5B08126874
:10165000520052089A1A9E4BD4180A9A002A01D0B6
:10166000352200E040220692002201231546049212
:10167000DB07059324E0002D05D175460346039E44
:101680004D1BB34109D375466646039B491B049D18
:101690009841059B7519AC465F4163463B4308D0B2
:1016A000059B049EDD0776082E435B080496059390
:1016B00001E0521E641EC50FED0749184041521C3F
:1016C000069B9A42D7DB002D04D17546039A6B1A0C
:1016D000824101D203200CE0039A0B466B4042404A
:1016E000134303D0014303D0012002E0022000E0B5
:1016F0000020614601910021009702910A9900297A
:1017000005D0614640020143704B019102E0800721
:10171000002302909C4201DA012000E00020070033
:101720003AD01A1BD006C00E15D0029D2021019C74
:10173000091AC5408C402543029C8C4000D00124EE
:101740002543019C0295009DC4408D4000992C4387
:101750000194C140009154111DD06D460221002218
:1017600002290CD10320001B07E0002804DB8600BF
:10177000AE59002E00D00122401C0328F5DB081BC7
:1017800002D588002A5004E08000285810438A00BF
:10179000A850491EE3D51C460A98002802980CD090
:1017A000002800D001200199019A49050843012130
:1017B000D20AC902D202019200E00121109B01224B
:1017C000D207012B02D0002B03D013E0002807D151
:1017D0001FE0904204D890420CD1019B0B4209D0EB
:1017E000019B5918019105D10099491C009101D123
:1017F000641C009200280CD0102108460020C0462E
:10180000002F06D01198002803D008210846002098
:10181000C04608980999019A009B006809684840E9
:10182000C10F0798C907214382600AC00BB0F0BD01
:1018300000B585B0019300920A460146002302A834
:10184000FFF7FCFD02A807C805B000BDFFB50A46BA
:101850001F4685B00799019301230091014602A814
:10186000FFF7ECFD02990398049ECA0F4900D207C6
:1018700000920F22490892028C1A0021002800DBF6
:101880000C46450013486D08844214D3079A002A79
:1018900004DA441E0026104DF64302E004460D46CD
:1018A0000E46102108460020C046002F03D0042118
:1018B00008460020C0462005E90A0843009908436D
:1018C0006905F20A1143ADE602C0FFFF013C0000CA
:1018D000FF3F0000FF070000FFFFFF7F00B585B05E
:1018E000019300920A460146002302A8FFF79CFEDE
:1018F00002A807C8A8E7FFB50A461F4685B00799A2
:10190000019301230091014602A8FFF78DFE029981
:101910000398049ECA0F4900D20700920F2249087B
:1019200092028C1A0021002800DB0C464500114869
:101930006D08844214D3079A002A04DA441E002654
:101940000D4DF64302E004460D460E4610210846B2
:101950000020C046002F03D0042108460020C046C6
:101960002005E90A0843009908436905F20A114372
:1019700058E60000FF070000FFFFFF7F01468008D8
:10198000081A02091018020A1018020C1018C008D0
:10199000820012185200891A01E0401C0A390A29F3
:1019A000FBD27047C80212D54803400F002804D06C
:1019B000C803C043012188407047EFF30080000155
:1019C000000903210907084380F3008870470020BD
:1019D0007047000010B500200249029A00F05AF842
:1019E00010BD00000000F87F10B5024800F052F86A
:1019F00010BD00000000C07F704710B50446C0460F
:101A0000C0462046FEF79EFE10BD0000024670B59F
:101A10000A4392072AD11E4DEE0104C808C9541B7F
:101A20009443344017D0D0B2D9B2401A21060143B2
:101A300010D190B299B2401A210401430AD1100288
:101A40001902000A090A401A2102014302D1100EAC
:101A5000190E401A70BD9A42DFD010BA19BA8842E6
:101A600001D9012070BD0020C04370BD02780B7801
:101A7000401C491C002A09D09A4207D102780B78F1
:101A8000401C491C002A01D09A42EFD0D01A70BDE8
:101A90000101010110B50C461107090F092904D0F5
:101AA0000A290AD008290CD104E011460820FFF7C2
:101AB00079FF06E0510606D501E0510601D5012067
:101AC000C007214610BDD10607D501010909CC0880
:101AD0004907000E0006044309E0410F20024907B0
:101AE000000A0143200E00061D22D1410143084691
:101AF000E7E7000001491820ABBEFEE72600020020
:101B000014200749C8600A21054801610448403093
:101B1000006B4008400002494031086370470000F4
:101B20000080034010B527480068012149020840A1
:101B3000002846D0234800688843224908600846A8
:101B400000692149086021480068401C1F4908605D
:101B50001C48C06880210840C009002804D01948EA
:101B6000C06888431749C860164800695A2803D1DD
:101B700000211448016104E01248006964301149F1
:101B80000861124800687D21C900884205D1012200
:101B90000521042000F01AF913E00C4800687D21AB
:101BA0000901884205D100220521042000F00EF928
:101BB00007E0064800680649884202D10020034930
:101BC000086010BD00800340CC000020C800002049
:101BD000C32600001348006A012189078843114980
:101BE00008620846006A2121490608430D49086237
:101BF0000D484069042108430B4948610B480A49D4
:101C0000403908600020084948620863632006499B
:101C10004039886001208003054908600549086053
:101C200070470000C050064040800340030103009D
:101C300000E100E080E200E00F48406A01218907EE
:101C400008430D4948620846806A890508430A49E5
:101C500088620846C06A890508430749C862084681
:101C6000006B89050843044908630846406B8905F1
:101C700008430149486370470051064030B50300EE
:101C800000F048FA0692041E3C5A7892FF23013372
:101C90008C00474D64192360012A07D1454B5B69CD
:101CA00001248C402343434C636108E0002A06D1A1
:101CB000404B5B6901248C40A3433E4C636174E05C
:101CC000FF2301338C003C4D64192360012A09D1A4
:101CD000384B40335B6901248C402343354C4034FE
:101CE00063610AE0002A08D1324B40335B6901246A
:101CF0008C40A3432F4C4034636156E0FF230133F3
:101D00008C002E4D64192360012A09D1294B8033A0
:101D10005B6901248C402343264C803463610AE0D4
:101D2000002A08D1234B80335B6901248C40A343F4
:101D3000204C8034636138E0FF2301338C00204D58
:101D400064192360012A09D11A4BC0335B6901244D
:101D50008C402343174CC03463610AE0002A08D149
:101D6000144BC0335B6901248C40A343114CC03435
:101D700063611AE0FF2301338C00124D6419236064
:101D8000012A07D1104B5B6901248C4023430E4C80
:101D9000636108E0002A06D10B4B5B6901248C408B
:101DA000A343094C636100E000BF00BF30BD0000E9
:101DB0000090044000F00F4000A0044000B0044038
:101DC00000C0044000D0044000F10F4010B50300F3
:101DD00000F0A0F90674041830486074012A07D195
:101DE000384B5B6801248C402343364C636008E029
:101DF000002A06D1334B9B6801248C402343314C8D
:101E0000A3605CE0012A09D12E4B40335B680124BA
:101E10008C4023432B4C403463600AE0002A08D1F5
:101E2000284B40339B6801248C402343254C40348D
:101E3000A36044E0012A09D1224B80335B6801246E
:101E40008C4023431F4C803463600AE0002A08D191
:101E50001C4B80339B6801248C402343194C8034F5
:101E6000A3602CE0012A09D1164BC0335B68012422
:101E70008C402343134CC03463600AE0002A08D12D
:101E8000104BC0339B6801248C4023430D4CC0345D
:101E9000A36014E0012A07D10B4B5B6801248C403E
:101EA0002343094C636008E0002A06D1064B9B6877
:101EB00001248C402343044CA36000E000BF00BF1A
:101EC00010BD000000F00F4000F10F400A48806A8A
:101ED000012189078843084988620846806A2121D0
:101EE00049060843044988620448054908610320FB
:101EF0008004886170470000805106403400000F64
:101F000000A0064000BF054949690122D2051140E1
:101F1000C90D0029F7D00149C861704700A00640EB
:101F200010B50346002403E0185DFFF7EBFF641CC7
:101F3000185D0028F8D110BD10B5FFF77DFE012215
:101F400011461046FFF79AFE012202211046FFF7C4
:101F500095FE012203211046FFF790FE0122072182
:101F60001046FFF78BFE012202210846FFF786FE8E
:101F7000012203210220FFF781FE0122032102201A
:101F8000FFF77CFE012205210420FFF777FE0122E6
:101F900011461046FFF71AFF012202211046FFF7F3
:101FA00015FF012203211046FFF710FF0122072130
:101FB0001046FFF70BFF012202210846FFF706FF3C
:101FC000012203210220FFF701FF00220521042046
:101FD000FFF7FCFE1348406B0121890708431149B4
:101FE0004863114800690521090208430E49086148
:101FF000084640690521090208430B494861094820
:10200000806A8904084307498862084800684915BE
:1020100008430649086008464068491508430349D3
:10202000486010BD0051064000D0044000A00440AC
:10203000FF200230084948600849486008480949BB
:10204000486100BF074800690F2109060840000EDB
:102050000328F7D1704700000043064000420640C5
:102060000100000300400640FF2002300B49486099
:102070003420886000BF094800680121C905084074
:102080000028F8D101200549086000BF0348006816
:102090000121090608400028F8D070470041064099
:1020A00004480549486008464068044808600448F8
:1020B0008860704720C528D90020054020210000F5
:1020C000FFFF00000448054948600548886021205A
:1020D000000208607047000020C528D90020054094
:1020E000FFFF0000F8B5040C8BB2264682B25E43B7
:1020F000104658430D0C370C360400218019164643
:1021000079416E43370C36048019264679416E4377
:102110008919F8BD30B47446641E2578641CAB423E
:1021200004D3635D5B00E31830BC18471D46F8E735
:102130004900CA020243100000D004204A0D01D019
:1021400001221043044A490D914201D10221084362
:10215000012800D105207047FF07000030380A2809
:1021600001D2012070470020704710B502460024BC
:102170000023002A03D1002901DCFF2010BD002329
:1021800002E0D05C44405B1C8B42FADB2046F5E762
:1021900018B5114A126800920021104A104B9A4259
:1021A00014D0002006E082000D4B9A5883000B4C9F
:1021B000E250401C0B4A094BD21A92088242F2D8D4
:1021C0001A468B006C46E3581A6004E0044A8B0000
:1021D0006C46E3581A6018BD94040000000000200B
:1021E00000000000C00000201CB5FFF76BFFFFF7E8
:1021F0003BFFFFF71DFFFFF79FFEFFF7EBFCFFF72D
:102200007FFC00F013F8FFF761FE00BF064903C929
:1022100001910090012205210420FFF7D7FD00BFA6
:1022200000F00EF8FCE700008C0400000348006892
:1022300018210843014908607047000000800340EE
:1022400070B55D4800687D21490188427ED15B48B8
:102250000068401C59490860E1210901574800689D
:10226000FEF7D6FB564906464E43E1210901534885
:102270000068FEF7CDFB0D463C212846FEF7C8FB63
:102280006421484335183C214C480068FEF7C0FBE8
:102290006C182046FEF7C0FC4A4908604A49494884
:1022A000006800F01BF90BD246480068FEF75EFCA0
:1022B000044622460B4645494548FEF777FA54E066
:1022C00044494048006800F009F90BD23D480068D5
:1022D000FEF74CFC044622460B463F493C48FEF7BD
:1022E00065FA42E03D493748006800F0F7F80BD244
:1022F00034480068FEF73AFC044622460B4638494B
:102300003348FEF753FA30E036492E48006800F0B3
:10231000E5F80BD22B480068FEF728FC044622465D
:102320000B4631492A48FEF741FA1EE02F4925485D
:10233000006800F0D3F80DD222480068FEF716FCC2
:10234000044622460B462A49214800E032E0FEF7C7
:102350002DFA0AE01B480068FEF708FC04462246F6
:102360000B4624A11A48FEF721FA1948FEF722FB72
:10237000841E21461648401CFFF7F7FE2D490870C1
:10238000084602782CA12E48FEF710FA2C49104876
:10239000FEF732FB0B480068FEF7E8FB044600221C
:1023A000284B00F067F802D800200449086008486C
:1023B000FFF7B6FD70BD0000C8000020D00000206F
:1023C00010270000D4000020000020417806000003
:1023D000E40000200000C8423406000000007A44F7
:1023E000F005000000401C46AC0500000050C3474B
:1023F00068050000244750524D432C252E32662C90
:10240000412C333135382E343630382C4E2C313186
:102410003834382E333733372C452C31302E303585
:102420002C3332342E32372C3135303730362C2C99
:102430002C412A00D8000020253032780A0D0000F7
:10244000D9000020B8CD0C4110B500290AD0087879
:10245000002807D005487844FFF7D8FA002801D0B3
:10246000002010BD0248784410BD00008AE2FFFF42
:1024700082E2FFFF70B501251C002D050C4310D42E
:10248000EC4206D4AC420AD48B4200D070BD8242EA
:1024900070BDEB4217D4E94215D48B4270BD9B420C
:1024A00070BDEC4206D5AC42F9D5994200D070BD62
:1024B000904270BD6D005C00EC4204D24C00EC42D6
:1024C00001D2994270BD0FB4034C0CBC03BC30B4B4
:1024D000FEF728FE30BC70BD19001604012302006F
:1024E000DB050A430DD4DA4203D49A4207D488426A
:1024F0007047D84214D4D94212D4884270478042DF
:102500007047DA4203D59A42F9D5814270475B00A1
:102510004200DA4204D24A00DA4201D281427047D4
:1025200010B5024AFEF746FE10BD00BF09001604B2
:1025300003B402487844844603BC604737E9FFFF90
:10254000000000000000000000000000000000008B
:10255000000000000000000000000000000000007B
:042560000000000077
:0400000500000411E2
:00000001FF
