:020000040000FA
:1000000000300020C1040000D3040000D50400002B
:10001000D7040000D9040000DB0400000000000049
:10002000000000000000000000000000DD040000EF
:10003000DF04000000000000E1040000E304000011
:10004000E5040000E5040000E5040000E50400000C
:10005000E5040000E5040000E5040000E5040000FC
:10006000E5040000E5040000E5040000E5040000EC
:10007000E5040000E5040000E5040000E5040000DC
:10008000E5040000E5040000E5040000E5040000CC
:10009000E5040000E5040000E5040000E5040000BC
:1000A000E5040000E5040000E5040000E5040000AC
:1000B000E5040000E5040000E5040000FD0C00007C
:1000C000E5040000C50D0000E5040000E5040000A3
:1000D000E5040000E5040000E5040000E50400007C
:1000E000E5040000E5040000E5040000E50400006C
:1000F000E5040000E5040000E5040000E50400005C
:10010000910B0000E5040000E5040000E504000098
:10011000E5040000E5040000E5040000E50400003B
:10012000E5040000E5040000710C0000E504000097
:10013000E5040000E5040000E5040000E50400001B
:10014000E5040000E5040000E5040000E50400000B
:10015000E5040000E5040000E5040000E5040000FB
:10016000E5040000E5040000E5040000E5040000EB
:1003F000E5040000E5040000E5040000FFFFFFFF46
:020000040000FA
:10040000FFFFFFFFFFFFFFFFFFFFFFFFFE7FFFFF7D
:020000040000FA
:1004100000F002F800F044F80AA090E8000C8244D2
:100420008344AAF10107DA4501D100F039F8AFF2AF
:10043000090EBAE80F0013F0010F18BFFB1A43F0C2
:10044000010318475820000088200000103A24BFFC
:1004500078C878C1FAD8520724BF30C830C144BF29
:1004600004680C607047000000230024002500266B
:10047000103A28BF78C1FBD8520728BF30C148BF07
:100480000B6070471FB501F08DFF0248024900F074
:1004900007F91FBDCC020020CC06002010B510BD0E
:1004A000DFF80CD0FFF7EEFF00F050FF00F07AF815
:1004B0000030002003B4FFF7F1FF03BC00F048F95F
:1004C000094872B6094880470948804762B609481A
:1004D0000047FEE7FEE7FEE7FEE7FEE7FEE7FEE792
:1004E000FEE7FEE7FEE70000000400005D0F0000ED
:1004F000CD1100001104000070B5064600F0B4F8FC
:10050000056806F10B0020F00704B4429CBF0020F0
:1005100070BD2B466A68BAB11068A04210D304F1CE
:10052000080188423CBF5068586007D351681019D1
:1005300041601168091B016058601460101D70BD96
:1005400013465268002AE7D12146284600F094F865
:100550000028DED170BD70B50446051F00F084F898
:100560000068002C14BF446870BD002C18BFAC425A
:100570003CBF20466468F8D301680A18AA4218BF35
:10058000456003D12A680546114401602868411975
:10059000A1421CBF6C6070BD61686960216808443D
:1005A000286070BD10B50446AFF300802046BDE85A
:1005B0001040FFF77FBF10B5203AC0F00B80B1E8C4
:1005C0001850203AA0E81850B1E81850A0E8185088
:1005D000BFF4F5AF5FEA027C24BFB1E81850A0E891
:1005E000185044BF18C918C0BDE810405FEA827CAB
:1005F00024BF51F8043B40F8043B08BF7047D207C2
:1006000028BF31F8023B48BF11F8012B28BF20F862
:10061000023B48BF00F8012B70474FF0000200B5C5
:10062000134694469646203922BFA0E80C50A0E815
:100630000C50B1F12001BFF4F7AF090728BFA0E8C3
:100640000C5048BF0CC05DF804EB890028BF40F88F
:10065000042B08BF704748BF20F8022B11F0804FD1
:1006600018BF00F8012B70470048704798D5FF1F4E
:10067000704770477047704738B504460A460020F7
:100680006946AFF30080002808BF38BD02460099D4
:10069000204600F03BF8012038BD012000F050B8A2
:1006A000F8B5AFF30080054600200C46102000BFCF
:1006B0000646A819A0420DD9324669460020AFF37C
:1006C0000080070008BF00F03BF80098A04218BF68
:1006D0000546C419FFF7C8FF05600746F01D20F066
:1006E00007004619284600F00AF8B44208BFF8BDD2
:1006F000A21B31463868BDE8F84000F007B8002179
:100700000160C0E90110704710207047034640683F
:100710008C46002818BF88423CBF03464068F8D387
:1007200018681844884207D00CF1030020F0070035
:10073000001D411A521A0146081D0A60FFF70BBF3F
:1007400010B500F011F8BDE8104000F008B8000046
:1007500001491820ABBEFEE72600020070470028C2
:1007600001D0FFF7F5BF704710B5012805D0002173
:1007700003A000F021F8012010BD09A1F8E7000056
:1007800053494752544D454D3A204F7574206F667A
:100790002068656170206D656D6F727900000000E2
:1007A0003A2048656170206D656D6F727920636FC6
:1007B000727275707465640070B505460C460A2047
:1007C00000E06D1C00F011F835B128780028F8D150
:1007D00002E0641C00F009F814B120780028F8D178
:1007E000BDE870400A20AFF3008008B569468DF877
:1007F00000000320ABBE08BD40F2010CC2F2000CA9
:10080000604740F2511CC2F2000C604740F2792C64
:10081000C2F2000C604719B94FF48032C26052E056
:10082000012902D18A1EC2604DE0022902D1CA1EEE
:10083000C26048E0032903D14FF40042C26042E0A5
:10084000042902D10022C2603DE0052902D18A1F9D
:10085000C26038E0062902D1CA1FC26033E007290E
:1008600003D14FF0FF32C2602DE0082902D10022EF
:10087000C26028E0092903D14FF0FF32C26022E0B4
:100880000A2903D14FF48042C2601CE00B2903D136
:100890004FF40042C26016E00C2903D14FF48032BD
:1008A000C26010E00D2903D14FF0FF32C2600AE0B0
:1008B0000E2903D14FF0FF32C26004E00F2902D1AC
:1008C0004FF48032C26070472DE9F04105460C4676
:1008D00000262868206068686060A868A060E868F2
:1008E00020612869A0610A48C06CC0F3033739460B
:1008F0002046FFF790FFE068B0F5803F03D24FF449
:100900008050606101E0002060613046BDE8F08108
:10091000008004401148006840F080401049C1F850
:1009200024010846D0F8280140F08040C1F8280191
:100930000846D0F82C0140F08040C1F82C01084650
:10094000D0F8300140F08040C1F830010846D0F8BE
:10095000340140F08040C1F8340170472451064012
:100960000050064030B506287CD2DFE800F0860350
:100970001B334F6B4FF48073414D45F82130012AF2
:1009800007D1404B5B6901248C4023433D4C63619C
:1009900007E032B93B4B5B6901248C40A343394CDF
:1009A00063616BE04FF48073374D45F82130012AC5
:1009B00007D1344B5C6D01238B401C43314B5C658C
:1009C00007E032B92F4B5C6D01238B409C432D4BCC
:1009D0005C6553E04FF480732C4D45F82130012ABB
:1009E00009D1284B94331C6801238B401C43254BB1
:1009F000C3F8944009E042B9224B94331B680124A8
:100A00008C40A3431F4CC4F8943037E04FF48073FC
:100A10001F4D45F82130012A09D11A4BD4331B68E8
:100A200001248C402343174CC4F8D43009E042B968
:100A3000144BD4331C6801238B409C43114BC3F8E7
:100A4000D4401BE04FF48073124D45F82130012A49
:100A500009D1114B1C6801238B401C43094BC3F87F
:100A6000144109E009E03AB90B4B1C6801238B40A3
:100A70009C43044BC3F8144100E000BF00BF30BDED
:100A80000090044000F00F4000A0044000B004407B
:100A900000C0044000D0044014F10F4010B50628F7
:100AA0006ED2DFE800F06D0316294057012A07D106
:100AB000354B5B6801248C402343334C636007E073
:100AC00032B9314B9B6801248C4023432E4CA360E8
:100AD00057E0012A07D12C4B5B6C01248C40234347
:100AE000294C636407E032B9274B9C6C01238B408F
:100AF0001C43254B9C6444E0012A09D1224B8433DA
:100B00001C6801238B401C431F4BC3F8844009E041
:100B100042B91D4B88331B6801248C4023431A4C77
:100B2000C4F888302DE0012A09D1174BC4331B6863
:100B300001248C402343144CC4F8C43009E042B96A
:100B4000114BC8331B6801248C4023430E4CC4F85E
:100B5000C83016E0012A08D10C4B1B6801248C40D8
:100B60002343094CC4F8043109E042B9074B1B1D6B
:100B70001C6801238B401C43034BC3F8084100E071
:100B800000BF00BF10BD000000F00F4004F10F4097
:100B90001848C06800F0010050B31649C96841F018
:100BA0000101144AD16014490968491C124A1160B4
:100BB000002000BF0BE0114951F820100E4A1268C6
:100BC000914203D101210E4A42F82010401C0D49E8
:100BD00009688842EFDB09490B4A126851F8221074
:100BE000054A1268914202D10021034A116000BFF8
:100BF00070470000007003407CC0FF1F40D5FF1FFE
:100C000068D5FF1F74C0FF1F64C0FF1F4FF0C06096
:100C10000D4908600C48DC38D0F8DC0040F080401A
:100C20000949DC39C1F8DC000848806840F001005F
:100C300006498860064808620846806A40F001015B
:100C40000248816270470000DC500640007003409B
:100C500080841E000548806A20F0010103488162FB
:100C6000806940F0010001498861704700700340CD
:100C70001A48006800F0800070B319494969194AA0
:100C800011601649096841F08001144A1160164943
:100C90000968491C144A1160002000BF0BE0134989
:100CA00051F82010104A1268914203D10121104AD4
:100CB00042F82010401C0F4909688842EFDB0B49BD
:100CC0000D4A126851F82210074A1268914202D167
:100CD0000021054A116000BF704700000000044079
:100CE00000E0074070C0FF1F68C0FF1FF0D4FF1F67
:100CF00018D5FF1F60C0FF1F64C0FF1F0EB52A4834
:100D0000406900F40000C0B1284800F043FA002810
:100D10000DDD6946254800F0D7F99DF8000022490D
:100D2000C86123480068401C2149086005E01E484E
:100D3000806920F400001C4988611B48406900F468
:100D4000800028B11848806920F480001649886125
:100D50001548406900F4001020B31348C069C0B2C0
:100D600002901448029900F0CFF913480068C8B106
:100D70000DE001A90F4800F0A7F99DF804100F48F5
:100D800002680068401C0D4B18600D4881540948EA
:100D900000F000FA002805DD0848006806490968E7
:100DA0008842E6D30EBD000000A00640D0D4FF1F4D
:100DB00040C0FF1FB0D4FF1F3CC0FF1F38C0FF1F43
:100DC000B0C8FF1F0EB52A48406900F40000C0B14A
:100DD000284800F0DFF900280DDD6946254800F0BD
:100DE00073F99DF800002249C86123480068401C3F
:100DF0002149086005E01E48806920F400001C4974
:100E000088611B48406900F4800028B11848806957
:100E100020F48000164988611548406900F40010EC
:100E200020B31348C069C0B202901448029900F080
:100E30006BF913480068C8B10DE001A90F4800F034
:100E400043F99DF804100F4802680068401C0D4BE0
:100E500018600D488154094800F09CF9002805DD10
:100E600008480068064909688842E6D30EBD0000BC
:100E700000B00640E0D4FF1F54C0FF1FC0D4FF1FC6
:100E800050C0FF1F4CC0FF1FB0D0FF1F40F2011029
:100E90000649086006480749486100BF05480069DF
:100EA000C0F303600628F9D17047000004420640F1
:100EB000120001060040064040F201100D49086092
:100EC00024200D49C1F8080100BF0A48001F00682E
:100ED00000F400000028F8D101200649091F08602D
:100EE00000BF0448001F006800F080700028F8D0A0
:100EF00070470000044106400040064000BF16480D
:100F0000006800F400000028F9D11348006820F0C0
:100F1000010011490860081D006840F202310843D1
:100F20000D49091D08604FF4C010091D086000BF7D
:100F30000948006800F400000028F9D1064800685C
:100F400040F001000449086000BF0348006800F059
:100F500080700028F9D07047004606400B480068B2
:100F600040F47000094908600948006820F080409A
:100F7000074908600748084948600846406842F247
:100F8000201008604FF6FF708860704788ED00E021
:100F900034EF00E020C528D90020054030B50246D6
:100FA0000021002321480068012801D0C81E30BD5F
:100FB000002108E01E4850F82100904202D16FF055
:100FC0000100F4E7491C1B4800688142F2DB194824
:100FD00000680A2809DA174804680068401C154DA3
:100FE0002860134840F8242002E04FF0FF30DEE78D
:100FF000002115E0002912DD0D4850F82140481E5F
:101000000B4D55F82000844209DD284650F8210098
:10101000984204DD284650F8213007480160491CF9
:10102000044800688142E5DB0020C0E76CC0FF1F78
:10103000F0D4FF1F60C0FF1F64C0FF1F10B5024641
:101040004FF0FF30002100BF0DE00A4B53F8213074
:10105000934207D1084B53F821000023064C44F873
:10106000213010BD491C054B1B689942EDDB00BFC8
:10107000F7E70000F0D4FF1F18D5FF1F60C0FF1F67
:101080000448054948604FF6FF7088604FF40450EB
:101090000860704720C528D90020054010B50246D9
:1010A0000AB1002901DCFF2010BD002006E0135C1E
:1010B000044C24786340034C2370401C8842F6DBC8
:1010C0000020F1E714C0FF1F10B503460C46184678
:1010D00000F0A6F8022801D1032010BDD3E90001D9
:1010E000405C20705868401CD96890FBF1F201FB0D
:1010F000120058600220F0E701B500BF0098411EC1
:1011000000910028FAD108BD13B581B004462046ED
:1011100000F08FF8022804D169462046FFF7D4FF7B
:1011200000BFA168206808449DF808100170A068FD
:10113000401CE16890FBF1F201FB1200A06002206C
:101140001EBD000070B50F48392101230E4D35F842
:10115000115050F8252022F08042860406EA83755B
:101160002A43094D35F8115040F8252000BF0749A2
:101170000748FFF7A9FB044614B14FF0FF3070BDDC
:101180000020FCE7005006400024000094C0FF1F30
:10119000B02300000146D1E90120801ACA6810443A
:1011A00090FBF2F302FB1300704770B504460D4646
:1011B0002846FFF7A1F92060206808B9012070BD1A
:1011C00000206060A060E56000BFF8E708B5104A45
:1011D0001268009200210F4A0F4B9A4213D0002050
:1011E00006E00D4A52F820200A4B43F82020401C0C
:1011F0000A4A084BD21AB0EB920FF2D31A465DF8A6
:1012000021301A6003E0044A5DF821301A6008BDFD
:1012100098240000000000000000000000C0FF1F34
:101220000146D1E90102904201D10220704703201A
:10123000FCE701468868401CCA6890FBF2F302FB99
:1012400013004A68904201D1022070470320FCE756
:1012500010B5012200210420FFF784FB0122114672
:101260000420FFF77FFB012202210420FFF77AFB15
:10127000012203210420FFF775FB01220421084607
:10128000FFF770FB012205210420FFF76BFB012211
:1012900006210420FFF766FB012210210420FFF73E
:1012A00061FB01220A210520FFF75CFB01220821D6
:1012B0000520FFF757FB012200210420FFF7EEFB7A
:1012C000012211460420FFF7E9FB0122022104203C
:1012D000FFF7E4FB012203210420FFF7DFFB0122DB
:1012E00004210846FFF7DAFB012205210420FFF75D
:1012F000D5FB012206210420FFF7D0FB00220821A4
:101300000520FFF7CBFB00220A210520FFF7C6FBD3
:101310000D48FFF7F1FE002201210420FFF7BEFB7C
:10132000002202210420FFF7B9FB0748FFF7E4FE83
:10133000012211460420FFF7B1FB01220221042003
:10134000FFF7ACFB10BD0000803801002DE9FE4323
:1013500000260027B046002427A207CA8DE8070010
:10136000FFF78EFEFFF7A8FDFFF7C8FDFFF78EFD24
:10137000FFF7D0FAFFF74AFC00F004FCFFF7E2FEAB
:10138000FFF766FF4FF41651002000F03FF800F021
:101390000DFC00231A466946672000F0EDF912E0C3
:1013A000641C00F003FC00F0FDFA142C06DD154867
:1013B00090F90000002801DA002405E011480078C7
:1013C000052800D100E0EBE700BF00BF00F0EEFB16
:1013D0000546012D00D100E0F8E700BFFFF73AFC19
:1013E0004FF480404068084908600846006880471C
:1013F00000BF0020BDE8FE830001020304050607CC
:101400000809000008C0FF1F00C0FF1F2DE9F041C0
:101410002DED0A8B8AB004460E460025A84600270B
:1014200024226C4901A8FFF7C6F8012C06D02CB184
:10143000681E0AB0BDEC0A8BBDE8F08154B966485D
:1014400001686648FFF7B1FE634801686448FFF72A
:10145000ACFE09E0604801686248FFF7A6FE5E48FE
:1014600001686148FFF7A1FE0120604908706049EA
:10147000087002205F4908705F490870002544E049
:1014800001A850F82500B0423ED1082D39D2DFE83E
:1014900005F0040506070830340900BF00BF00BF8F
:1014A00000BF00BF0F27781C00F013FE41EC1A0BA1
:1014B000304600F025FE41EC1C0B53EC1C2B9FED3D
:1014C0004F0B51EC100B00F07DFC41EC1B0B53EC6F
:1014D0001A2B00F077FC41EC190B9FED4A0B53ECF3
:1014E000102B00F0C7FB41EC180B00F0C3FD804649
:1014F00008E004274FF00E0804E001274FF017081A
:1015000000E000BF00BF02E06D1C092DB8DB00BF8A
:101510000C2D02D16FF001008BE794B93B480068B5
:1015200040F080403A49C1F824013A48806840F4CC
:10153000C060384988600846C06840F4C060C86030
:1015400014E0012C12D131480830006840F080408E
:101550002F49C1F82C013048006A40F400702E4930
:1015600008620846406A40F40070486204F16A006C
:10157000274951F8200020F0804104F16A00244AF4
:1015800042F82010114651F8200040F0844104F147
:101590006A0042F8201064B9C8F30C004FF0F8510B
:1015A00001EA076108431D4908614FF44020886142
:1015B0000DE0012C0BD1C8F30C004FF0F85101EAFB
:1015C00007610843164908614FF4402088610020F4
:1015D0002FE70000DC2300005CC0FF1FB0D4FF1F1A
:1015E000D0D4FF1FC0D4FF1FE0D4FF1F35C0FF1FA2
:1015F00048C0FF1F36C0FF1F49C0FF1F000000008A
:1016000080845E41000000000000E03F245106405D
:10161000005006400090044000B0044000A0064086
:1016200000B006402DE9F04706460F4690461C469E
:101630000025A946AA464FF4FA504443B8F1000FDA
:1016400052DD4CE02EBB2948406900F4002028B14F
:101650002648406940F400202449486109E06D1C97
:1016600000F0DAFA00F0A2FAA54202D34846BDE83B
:10167000F0871E484069C0F340500028EFD01B4857
:10168000C06900F0FF0A484609F1010907F800A007
:1016900025E0012E23D11648406900F4002028B12E
:1016A0001348406940F400201149486108E06D1C6E
:1016B00000F0B2FA00F07AFAA54201D34846D6E724
:1016C0000B484069C0F340500028F0D00848C0697A
:1016D00000F0FF0A484609F1010907F800A0B8F137
:1016E0000000A8F10108ADD14846C0E700A00640BF
:1016F00000B006402DE9F04706460F4691461C46CD
:101700000025A8464FF4FA5044432AE0AEB907E05A
:101710006D1C00F04BFAA54202D34046BDE8F087AD
:1017200013484069C0F3C0500028F1D0404608F18A
:101730000108385C0E49C86113E0012E11D104E0A4
:101740006D1CA54201D34046E8E70A484069C0F352
:10175000C0500028F4D0404608F10108385C054923
:10176000C861B9F10000A9F10109CFD14046D5E720
:1017700000A0064000B006402DE9F04391B00646B7
:101780000F4690461D463C2102A8FEF746FF7F48C3
:101790000068019002244FF00009042E7ED005DC81
:1017A0004EB1012E2FD0032E79D15DE0052E77D0DA
:1017B000672EF9D1C0E0002075490860012220465B
:1017C000641C01A90A5400222046641C0A54714872
:1017D00002782046641C0A540D222046641C0A54D8
:1017E0006C480068401CFF2801DD002002E06948C9
:1017F0000068401C674908600A23224601A90020AE
:10180000FFF778FFBEE06248006860BBFEF7F4FFB8
:1018100002222046641C01A90A5401222046641CAD
:101820000A5464222046641C0A545A48027820460E
:10183000641C0A540D222046641C0A545548006852
:10184000401CFF2801DD002002E052480068401CD7
:101850005049086064204E4908600A23224601A9C5
:101860000020FFF747FF8DE04B480068A84204D0F6
:1018700041463846FEF7C5FF8146474805600322CA
:101880002046641C01A90A5401222046641C0A5403
:10189000012000EBE9722046641C02E01EE070E0CB
:1018A00046E00A543B4802782046641C0A540D2244
:1018B0002046641C0A5437480068401CFF2801DD9C
:1018C000002002E033480068401C324908600A23C7
:1018D000224601A90020FFF70DFF53E00422204615
:1018E000641C01A90A5401222046641C0A542B4896
:1018F00002782046641C0A54264802782046641C5C
:101900000A540D222046641C0A5422480068401CD8
:10191000FF2801DD002002E01E480068401C1D4930
:1019200008600A23224601A90020FFF7E3FE29E010
:1019300005201B49087025E067222046641C01A988
:101940000A5400222046641C0A5412480278204699
:10195000641C0A540D222046641C0A540D48006879
:10196000401CFF2801DD002002E00A480068401CFE
:10197000084908600A23224601A90020FFF7BAFEA1
:1019800000E000BF00BF11B0BDE8F083D823000025
:1019900030C0FF1F28C0FF1F24C0FF1F14C0FF1F3F
:1019A00008C0FF1F30B59FB00024782101A8FEF7C2
:1019B00034FE0A23642201A90020FFF733FE054606
:1019C000002D76DD00BFCCE001A8005D55280DD1CB
:1019D0006648006850B901A8015D64480268006863
:1019E000401C624B186062488154B9E001A8005D58
:1019F000AA280ED15D48006801280AD101A8025D1D
:101A00005A4801680068401C584B186058484254B6
:101A1000A6E05648006802280ED101A8005D55498D
:101A2000087008460178514802680068401C4F4B16
:101A300018604F48815493E04C48006803280ED149
:101A400001A8005D4C4908600846017847480268D3
:101A50000068401C454B18604548815480E043486D
:101A60000068042811DB44480068001D3F490968EC
:101A700088420ADD01A8015D3C4802680068401CFC
:101A80003A4B18603A4881546AE03B480068001DB0
:101A90003649096888420DD101A8025D33480168C2
:101AA0000068401C314B1860314842543348026092
:101AB00056E059E001A8005D0D2849D12E48006884
:101AC000401D2A490968884242D101A8015D274882
:101AD00002680068401C254B186025488154254841
:101AE0000078012803D10020254908701BE0214817
:101AF0000078022803D101202149087013E01D4815
:101B00000078032802D11E4908700CE019480078BB
:101B1000042802D11A49087005E016480078052803
:101B200001D11749087000F041F8154908781349A8
:101B30000B6811490A680E49091DFFF71DFE4FF495
:101B400080610B48FEF769FD00200849086007E046
:101B50004FF480610648FEF760FD002003490860ED
:101B6000641CAC42FFF630AF1FB030BD18C0FF1F81
:101B7000B0C0FF1F15C0FF1F1CC0FF1F20C0FF1FEC
:101B800008C0FF1F10B54FF0FF3401220F210420C1
:101B9000FEF7E8FE00220F210420FEF77FFF32202F
:101BA000FFF7FCF90446204610BD000010B5FEF713
:101BB0002DFE0446012C04D115480068401C144930
:101BC00008601348006812280BDB1248006840B90F
:101BD00001220F210420FEF761FF01200D4908605A
:101BE00010BD0B48006813280EDB0A480068012866
:101BF0000AD100220F210420FEF750FF00200449E3
:101C0000086004490860EBE74FF0FF30E8E70000A8
:101C100090C0FF1F8CC0FF1F10B500243220FFF7BB
:101C20000DFA0446012C22D111480068401C1049CD
:101C3000086008460068092190FBF1F201FB1200E0
:101C400028B901220F210420FEF728FF0FE00848E1
:101C500000680A2190FBF1F201FB120038B9002262
:101C60000F210420FEF71AFF00200149086010BD73
:101C700084C0FF1F10B591EA030F48BF83F00043F3
:101C800000F1AE82841A71EB030C05D2121943EBFA
:101C90000C03001B61EB0C01DFF824E14FEA115447
:101CA000A4EB135C1EEA430F18BF9EEA445F73D097
:101CB00023EA0E03DCF1200E21EA045143F48013E1
:101CC00032D322FA0CFE10EB0E0023FA0CFE41EB8D
:101CD0000E01CCF1200E03FA0EFE10EB0E0051F1B6
:101CE0000001B1F5801FCCF1200E32D201EB04517E
:101CF00012FA0EF2BDE8104058BF7047401C38BFC2
:101D00005FEA420218BF7047002814BF20F00100AC
:101D100041F100014FEA410313F5001F38BF70473E
:101D2000A1F1C04100F04DBA012A43EB0302ACF12E
:101D3000200CDCF11F0E32BF4FF0000E23FA0CF323
:101D400010EB030041EB0451B4EB115FD0D0A1EBD9
:101D5000045101F5801149085FEA300001EB04519C
:101D60000ED350F1000038BF12FA0EFE08D1BDE8C4
:101D70001040C9E7401C38BF5FEA4202CAD1C3E73E
:101D8000BDE810404FEA410313F5001F38BF70470C
:101D9000A1F1C04100F015BA9EEA445F08D011EAF3
:101DA0005E0FBDE8104004BF01F000410020704705
:101DB000BDE8104070B500F0B6F900BF64FBBE3E50
:101DC0000000E0FF2DE9C04130B4DFF8A0C23CEADA
:101DD000111418BF3CEA131400F0EC8081EA0305EB
:101DE0001CEA111444EAD57418BF1CEA131500F05C
:101DF000C780A4EB05044FF0004545EAC12145EA40
:101E0000C32341EA505143EA525304F17F7499428B
:101E100004F500344FEAC0204FEAC22208BF9042C6
:101E200000F09C804FEA13650FF24016765D4FEA92
:101E3000134506FB05F7C7F1807706FB07F74FEA66
:101E4000D737A7FB03687642C8F58038A7FB06CED4
:101E500038BFA8F1010807FB08E64FF0000EA6FB0B
:101E6000028CE6FB03CEDCF1000CCEF1004E38BF55
:101E7000AEF1010EA6FB0C584FF000074FF0000525
:101E8000E6FB0E87A1FB08C6A0FB07CE16EB0E06ED
:101E900045F10005E1FB076515F1E04E7EBFA4F5B5
:101EA00080345FEA46066D4116F1800745F1000572
:101EB0004FEA17274FEA066647EA0567A6F1DE46AE
:101EC000B6F1805F4FEA15251FD9384624F0010C82
:101ED00005EBC471BCF1FE6F01EB0C1102D8F0BC34
:101EE000BDE8008124425CBF01F5801E9EEAC47FEC
:101EF00002D4F0BCBDE80081244238D4F0BCA1F18A
:101F0000C041BDE8004100F05CB94FEAD22242EA8C
:101F100043524FEAD323A7FB02864FEAD02040EA80
:101F2000415007FB03661EEA0E0F4FEAD12105FB65
:101F3000026658BFA6EB0056B6EB00564FEA520EAB
:101F40004EEAC37E18EB0E0E56EB530EBDD518EBC2
:101F500002085E417F1C55F10005B6E74FF480157D
:101F60004FF000074FF000064FF00008ADE7F0BC5F
:101F70004FF0000001F1C04101F00041BDE80081D7
:101F800011EA0C1F0CEA131500D00CE013EA0C1F29
:101F900000F025804FF00000F0BC81EA030101F061
:101FA0000041BDE80081F0BCBDE8004181EA0301C9
:101FB00000F007B9F0BCBDE8004170B500F0B3F81F
:101FC000097EFC3E00F007B881EA03014FF00000F3
:101FD00001F00041704781EA030100F0F2B8F0BC63
:101FE000BDE800414FF0000021497047FFFDFBF9BB
:101FF000F7F5F4F2F0EEEDEBE9E8E6E4E3E1E0DE3C
:10200000DDDBDAD8D7D5D4D3D1D0CFCDCCCBCAC8AD
:10201000C7C6C5C4C2C1C0BFBEBDBCBBBAB9B8B7D4
:10202000B6B5B4B3B2B1B0AFAEADACABAAA9A8A8C7
:10203000A7A6A5A4A3A3A2A1A09F9F9E9D9C9C9B95
:102040009A99999897979695959493939291919040
:102050008F8F8E8E8D8C8C8B8B8A898988888787D1
:102060008685858484838382828181800000FF0746
:102070000000F87F4FEA41034FEA5353A3F5806312
:10208000D3F11E03C8BFD3F1210C0CDD4FF0004289
:1020900042EAC12242EA505232FA03FC8CEAE17C65
:1020A000ACEBE1707047102BC4BF0020704703F504
:1020B000787CBCF1FF3F04D06FF0004282EA21003F
:1020C000704770B500F02FF84992248000207047C7
:1020D000F2E710F0004248BF4042B0FA80F310FA35
:1020E00003F10AD0C3F11D0303F580634FEA4150A9
:1020F00002EB035202EBD12170474FF00000704712
:10210000B0FA80F310FA03F10AD0C3F11D0303F50E
:1021100080634FEA41504FEA035202EBD1217047EE
:102120004FF0000070470EF1020E2EF0030E5EF825
:10213000046B364205D4012A43EB030515F5001F55
:1021400012D8012841EB010C1CF5001F0CD80ED150
:102150004FEAD17C15F5001F0CEB4C0C0CF1020C76
:1021600008BF4CEBD37C04E04FF0080C01E04FEAD1
:10217000D37C0CEB4C0526FA05F606F00706B6F103
:10218000040C06D20EEB860CBDE870404CF0010C3E
:102190006047DFE80CF0090B02024FF000414FF0FE
:1021A0000000A1F5002170BD19461046012851EB31
:1021B000010418BFD4F5001484BF002001F00041D1
:1021C00070BD0808A0F500114FEA3101704700000A
:1021D00010B591EA030F48BF83F000433FF552ADBD
:1021E000841A71EB030C07D212198CF0004C43EBEC
:1021F0000C03001B61EB0C01DFF8A4E14FEA115462
:10220000A4EB135C1EEA430F18BF9EEA445F00F084
:10221000B08023EA6E03524221EA0451C3EB6E03FD
:1022200038BF5B1EDCF1200E25D322FA0CFE10EB2A
:102230000E0043FA0CFE41EB0E01CCF1200E03FA26
:102240000EFE10EB0E0051F10001CCF1200E29D44E
:1022500012FA0EF201EB0451BDE8104058BF70476E
:10226000401C1CBFB2F1004F704700280CBF491C36
:1022700020F00100704712EB020E43EB030218BF7F
:102280004FF0010E4EEA4202ACF1200CDCF11E0EC2
:1022900054D943FA0CFE10EB0E0051F1FF31CCF192
:1022A0001E0ED5D50EF1010E12FA0EFE404141EB85
:1022B000010101EB445C5FEA5C5C10D910EBDE705D
:1022C00001EB045138BFBEF1004FBDE8104018BF0C
:1022D000704700280CBF491C20F00100704730D225
:1022E0004FEAD42C11F5001124F400641BD0B1FA8C
:1022F00081F20B3AA41AA41ED2F12003914030FAC5
:1023000003F31943904001EBCC71002C01EB045115
:10231000BDE81040A8BF704701F1C0414FF0000078
:1023200001F000417047B0FA80F310FA03F100D1D8
:1023300010BDE41A173C4805C90AE4E701EB045153
:1023400010BD491001EB0451BDE810404FEA3000C8
:1023500002E04FF0000170474A0008BF0042F8D089
:10236000B2F5001F28BF704701F000414FF0000098
:1023700070479EEA445F07D011EA5E0FBDE8104047
:1023800004BF002100207047BDE8104070B5FFF782
:10239000CAFE00BF40DFF63E83F0004110467047A2
:1023A0000000E0FF4FF04070E1EE100A70470000BF
:1023B00000000000000004000000001000000014F5
:1023C000FFFFFFFFAA5500000102030405060708EE
:1023D000090A0B0C0D0E0000AA550000C0120000E7
:1023E00080250000004B00000096000000E1000086
:1023F00000C2010000840300000807000000000084
:1024000000000000000000000000000000000000CC
:1024100000000000000000000000000000000000BC
:1024200000000000000000000000000000000000AC
:10243000000000000000000000000000000000009C
:10244000000000000000000000000000000000008C
:102450000000730032002100610049004A004B0077
:102460004C004D003D0000002400250036003100E6
:10247000000020000000380039003A00260000006B
:102480003B0027005A00660037002C002D0040005A
:102490006A006B000000000008ED00E0CC240000A2
:1024A00000C0FF1F940000004C04000060250000E5
:1024B00000000020CC0200004C0400006025000059
:1024C00094C0FF1F5C1500006804000000000000BD
:1024D00000000000FF0000000040000000000000BD
:1024E00000000000000000000000000000000000EC
:1024F00000000000000000000000000000000000DC
:1025000000000000000000000000000000000000CB
:1025100000000000000000000000000000000000BB
:102520000000000000000000C800000000000000E3
:10253000000000000000000000000000000000009B
:10254000000000000000000000000000000000008B
:10255000000000000000000000000000000000007B
:102560002DE9F04190B0002600243C2101A800F0A4
:1025700043F9924800680090022591484068A0F510
:102580001030C70A00BF8CE04FF0000800BF8D4834
:10259000007800F080000028F9D000F032F94FF008
:1025A00000083020874908708548006800F58040A1
:1025B00000EBC42609218348C171C6F30141817132
:1025C000310A417100207F49087108468079010471
:1025D0007C48407941EA00207A49097940EA0106BD
:1025E0007848807901047748407941EA00207549AC
:1025F00009790843B0F5804F00DA55E08020714931
:10260000087000BF6F48007800F080000028F9D003
:1026100000F0F7F84FF00008022228466D1C0DF874
:102620000020012228466D1C0DF80020781E00EEC7
:10263000100AF8EEC00A00EE104AB8EEC01A81EE99
:10264000200ADFED610A20EE200ABCEEC00A10EE7F
:10265000100AC2B228466D1C0DF800205B480278B3
:1026600028466D1C0DF800200D2228466D1C0DF823
:10267000002056480068401CFF2801DD002002E0D1
:1026800052480068401C514908609DF804006428C5
:1026900005D00A232A466946002000F0B7F8022533
:1026A000641CBC42FFF670AF00BF10B0BDE8F08103
:1026B0002DE9F04704460E46002E0BDDF11706EB20
:1026C0005171C910A6EBC10121B11CB14FF0FF300F
:1026D000BDE8F0870025A84600BF65E04FF000097F
:1026E00000BF3848007800F080000028F9D000F0E2
:1026F00088F8302033490870354800683549096842
:10270000471807212F48C171C7F301418171390A68
:10271000417101460F71807901042A48407941EAEC
:1027200000202849097940EA0107264880790104F8
:102730002448407941EA0020224909790843B0F54C
:10274000804F02DA002000F066F8615D1D480172DA
:10275000681C215C1B484172A81C215C19488172CD
:10276000E81C215C1748C172281D215C15480173C3
:10277000681D215C13484173A81D215C11488173B9
:10278000E81D215C0F48C17380200E49087000BF0E
:102790000C48007800F080000028F9D00D4800684F
:1027A00008300C4908600835B54297DB00BF314658
:1027B000204600F035F800208AE70000C42300001E
:1027C000B0230000000002400000C84228C0FF1FE4
:1027D0000CC0FF1F10C0FF1F00200649C96801F090
:1027E000010131B10349C96841F00101014AD160D9
:1027F000012070470070034040F21B6CC0F2000CD7
:10280000604741F6AD3CC0F2000C604741F2F56C08
:10281000C0F2000C604740F2A55CC0F2000C6047BB
:0C28200041F29D0CC0F2000C604700006B
:0400000500000411E2
:00000001FF
