:020000040000FA
:1000000000300020C1040000D3040000D50400002B
:10001000D7040000D9040000DB0400000000000049
:10002000000000000000000000000000DD040000EF
:10003000DF04000000000000E1040000E304000011
:10004000E5040000E5040000E5040000E50400000C
:10005000E5040000E5040000E5040000E5040000FC
:10006000E5040000E5040000E5040000E5040000EC
:10007000E5040000E5040000E5040000E5040000DC
:10008000E5040000E5040000E5040000E5040000CC
:10009000E5040000E5040000E5040000E5040000BC
:1000A000E5040000E5040000E5040000E90D00009F
:1000B000E5040000E5040000E5040000890F0000ED
:1000C000E504000051100000E5040000E504000014
:1000D000E5040000E5040000E5040000E50400007C
:1000E000E5040000E5040000E5040000E50400006C
:1000F000E5040000E5040000E5040000E50400005C
:100100006D0D0000E5040000E5040000E5040000BA
:10011000E5040000E5040000E5040000E50400003B
:10012000E5040000E5040000FD0E0000E504000009
:10013000E5040000E5040000E5040000E50400001B
:10014000E5040000E5040000E5040000E50400000B
:10015000E5040000E5040000E5040000E5040000FB
:10016000E5040000E5040000E5040000E5040000EB
:10017000E5040000E5040000E5040000E5040000DB
:10018000E50400005509000065090000E5040000D1
:10019000E5040000E5040000E5040000E5040000BB
:1001A000E5040000E5040000E5040000E5040000AB
:1001B000E5040000E5040000E5040000E50400009B
:1001C000E5040000E5040000E5040000E50400008B
:1003F000E5040000E5040000E5040000FFFFFFFF46
:020000040000FA
:10040000FFFFFFFFFFFFFFFFFFFFFFFFFE7FFFFF7D
:020000040000FA
:1004100000F002F800F044F80AA090E8000C8244D2
:100420008344AAF10107DA4501D100F039F8AFF2AF
:10043000090EBAE80F0013F0010F18BFFB1A43F0C2
:1004400001031847EC1F00002C200000103A24BFC5
:1004500078C878C1FAD8520724BF30C830C144BF29
:1004600004680C607047000000230024002500266B
:10047000103A28BF78C1FBD8520728BF30C148BF07
:100480000B6070471FB501F09BFF0248024900F066
:10049000ADF91FBD300100203005002010B510BDA2
:1004A000DFF80CD0FFF7EEFF01F0BCF800F0F6F932
:1004B0000030002003B4FFF7F1FF03BC00F024FA82
:1004C000094872B6094880470948804762B609481A
:1004D0000047FEE7FEE7FEE7FEE7FEE7FEE7FEE792
:1004E000FEE7FEE7FEE7000000040000E91100005F
:1004F000BD1400001104000070B5064600F05AF962
:10050000056806F10B0020F00704B4429CBF0020F0
:1005100070BD2B466A68BAB11068A04210D304F1CE
:10052000080188423CBF5068586007D351681019D1
:1005300041601168091B016058601460101D70BD96
:1005400013465268002AE7D12146284600F03AF9BE
:100550000028DED170BD70B50446051F00F02AF9F1
:100560000068002C14BF446870BD002C18BFAC425A
:100570003CBF20466468F8D301680A18AA4218BF35
:10058000456003D12A680546114401602868411975
:10059000A1421CBF6C6070BD61686960216808443D
:1005A000286070BD10B5431C02E010F8011B71B14A
:1005B0008107FAD14FF0013202C88C1A8C4314EA39
:1005C000C211F9D0C01A0A0603D0C01E10BDC01A4D
:1005D00010BD0A0401D0801E10BD0902FCD0401ECF
:1005E00010BD40EA010370B59B072ED14FF00136D4
:1005F000042A2AD308C810C99D1B9D43121F15EA5F
:10060000C61517D0D8B2E1B2401A50EA056110D130
:1006100098B2A1B2401A50EA05410AD123F07F40B6
:1006200024F07F41401A50EA052102D1180EA0EBB8
:10063000146070BDA342DBD018BA21BA884201D938
:10064000012070BD4FF0FF3070BD0AB9002070BDB1
:1006500010F8013B11F8014B63B1A3420AD1521EBD
:1006600008D010F8013B11F8014B1BB1A34201D196
:10067000521EEDD1181B70BD032A40F2308010F0DD
:10068000030C00F0158011F8013BBCF1020F62442D
:1006900098BF11F801CB00F8013B38BF11F8013BBE
:1006A000A2F1040298BF00F801CB38BF00F8013B6B
:1006B00011F0030300F02580083AC0F0088051F8DB
:1006C000043B083A51F804CBA0E80810F5E7121DE6
:1006D0005CBF51F8043B40F8043BAFF30080D20705
:1006E00024BF11F8013B11F801CB48BF11F8012BD1
:1006F00024BF00F8013B00F801CB48BF00F8012BF4
:10070000704710B5203AC0F00B80B1E81850203A7D
:10071000A0E81850B1E81850A0E81850BFF4F5AFA1
:100720005FEA027C24BFB1E81850A0E8185044BF2B
:1007300018C918C0BDE810405FEA827C24BF51F898
:10074000043B40F8043B08BF7047D20728BF31F88C
:10075000023B48BF11F8012B28BF20F8023B48BFDD
:1007600000F8012B70474FF0000200B51346944685
:100770009646203922BFA0E80C50A0E80C50B1F1F9
:100780002001BFF4F7AF090728BFA0E80C5048BF0D
:100790000CC05DF804EB890028BF40F8042B08BFAB
:1007A000704748BF20F8022B11F0804F18BF00F8A7
:1007B000012B704700487047E4D8FF1F704770470F
:1007C0007047704738B504460A4600206946AFF3C3
:1007D0000080002808BF38BD02460099204600F07E
:1007E0003BF8012038BD012000F050B8F8B5AFF358
:1007F0000080054600200C46102000BF0646A819C0
:10080000A0420DD9324669460020AFF300800700B0
:1008100008BF00F03BF80098A04218BF0546C41975
:10082000FFF7C8FF05600746F01D20F007004619D6
:10083000284600F00AF8B44208BFF8BDA21B3146B2
:100840003868BDE8F84000F007B800210160C0E951
:100850000110704710207047034640688C460028FE
:1008600018BF88423CBF03464068F8D31868184454
:10087000884207D00CF1030020F00700001D411A48
:10088000521A0146081D0A60FFF765BE10B500F058
:1008900013F8BDE8104000F00AB8704710B50446E0
:1008A000AFF300802046BDE81040FFF703BE0028EC
:1008B00001D000F029B8704710B5012805D00021FB
:1008C00003A000F027F8012010BD09A1F8E70000FF
:1008D00053494752544D454D3A204F7574206F6629
:1008E0002068656170206D656D6F72790000000091
:1008F0003A2048656170206D656D6F727920636F75
:10090000727275707465640001491820ABBEFEE711
:100910002600020070B505460C460A2000E06D1C5A
:1009200000F011F835B128780028F8D102E0641CF5
:1009300000F009F814B120780028F8D1BDE8704023
:100940000A20AFF3008008B569468DF80000032047
:10095000ABBE08BD1FB504466A4601A903A800F056
:1009600009F81FBD1FB504466A4601A903A800F097
:1009700001F81FBD2DE9F04706460D461746002435
:10098000A0465348006BC0F30010002853D05048D5
:10099000C0300068C0F302604E4908604C48C03067
:1009A0000068C0F380584A48C430006820F06040B6
:1009B00049490860B8F1000F04D108460068800C6E
:1009C000306002E04448006830604148C030006850
:1009D000C0F3034041490860387000240AE03C48F5
:1009E000803004F1120150F821003D4941F8240003
:1009F000601CC4B2022CF2DB394800682860384819
:100A00004068686037493068086008462968416076
:100A1000696881600EC8344800F012FD2C488030AF
:100A2000006880B2314908602948D0F80890102049
:100A3000274908634AE02648006BC0F3C00000283D
:100A400044D02348B0300068C0F3026021490860F8
:100A50001F48B430006820F060401F4908603060D3
:100A60001B48B0300068C0F303401C490860387070
:100A700000240AE01648803004F10E0150F82100ED
:100A8000174941F82400601CC4B2022CF2DB144860
:100A90000068286012484068686012493068086041
:100AA000084629684160696881600EC80E4800F0F8
:100AB000C7FC07488030006880B20C4908600448D1
:100AC000D0F8089008200249086300BFBDE8F0870D
:100AD0000040024000000020040000200800002028
:100AE0000C00002074000020800000201400002072
:100AF0001148006840F080401049C1F824010846C0
:100B0000D0F8280140F08040C1F828010846D0F80C
:100B10002C0140F08040C1F82C010846D0F830018B
:100B200040F08040C1F830010846D0F8340140F070
:100B30008040C1F8340170472451064000500640FF
:100B400030B506287CD2DFE800F086031B334F6BFC
:100B50004FF48073414D45F82130012A07D1404BB5
:100B60005B6901248C4023433D4C636107E032B94B
:100B70003B4B5B6901248C40A343394C63616BE0C0
:100B80004FF48073374D45F82130012A07D1344B9B
:100B90005C6D01238B401C43314B5C6507E032B92F
:100BA0002F4B5C6D01238B409C432D4B5C6553E0C8
:100BB0004FF480732C4D45F82130012A09D1284B80
:100BC00094331C6801238B401C43254BC3F894408D
:100BD00009E042B9224B94331B6801248C40A343A3
:100BE0001F4CC4F8943037E04FF480731F4D45F824
:100BF0002130012A09D11A4BD4331B6801248C40BF
:100C00002343174CC4F8D43009E042B9144BD43311
:100C10001C6801238B409C43114BC3F8D4401BE05C
:100C20004FF48073124D45F82130012A09D1114B40
:100C30001C6801238B401C43094BC3F8144109E095
:100C400009E03AB90B4B1C6801238B409C43044BD1
:100C5000C3F8144100E000BF00BF30BD0090044065
:100C600000F00F4000A0044000B0044000C0044069
:100C700000D0044014F10F4010B506286ED2DFE812
:100C800000F06D0316294057012A07D1354B5B68E8
:100C900001248C402343334C636007E032B9314B6D
:100CA0009B6801248C4023432E4CA36057E0012A0B
:100CB00007D12C4B5B6C01248C402343294C63648B
:100CC00007E032B9274B9C6C01238B401C43254B1A
:100CD0009C6444E0012A09D1224B84331C6801231F
:100CE0008B401C431F4BC3F8844009E042B91D4BA5
:100CF00088331B6801248C4023431A4CC4F8883085
:100D00002DE0012A09D1174BC4331B6801248C4004
:100D10002343144CC4F8C43009E042B9114BC83322
:100D20001B6801248C4023430E4CC4F8C83016E0E5
:100D3000012A08D10C4B1B6801248C402343094C29
:100D4000C4F8043109E042B9074B1B1D1C6801239C
:100D50008B401C43034BC3F8084100E000BF00BFB9
:100D600010BD000000F00F4004F10F401848C068AB
:100D700000F0010050B31649C96841F00101144A5E
:100D8000D16014490968491C124A1160002000BF53
:100D90000BE0114951F820100E4A1268914203D11C
:100DA00001210E4A42F82010401C0D490968884272
:100DB000EFDB09490B4A126851F82210054A126804
:100DC000914202D10021034A116000BF7047000028
:100DD000007003404C000020E000002008010020CB
:100DE00044000020340000202DE9FE4381464FF0EE
:100DF00000080025002700243948C06DC0F30246D2
:100E000037484069C0F34000002836D0AEB33448BC
:100E1000406900F480500121B1EB500F2DD13048D2
:100E2000D0F8748000BF09E0E00028FA00F0C0B2FA
:100E300002902C48029900F0E6FA641CB442F3DBFD
:100E400029480068C8B10DE001A9264800F0A8FAB9
:100E50009DF80410254802680068401C234B186068
:100E6000234881541F4800F00CFB002805DD1F4873
:100E700000681D4909688842E6D31948406900F0B6
:100E8000010058B3002414E01A4800F0FAFA0028D0
:100E90000EDD6946174800F083FA9DF80000E10076
:100EA0008840054314480068401C13490860012726
:100EB000641C042CE8DB37B109484566406940F002
:100EC0000100074948610B4800F0DBFA002805DC07
:100ED0000348806920F0010001498861BDE8FE8374
:100EE00000D002407CC0FF1F4CC0FF1F48C0FF1F46
:100EF0009CC4FF1F8CC0FF1F40C0FF1F1A48006822
:100F000000F0800070B319494969194A1160164907
:100F1000096841F08001144A116016490968491CAA
:100F2000144A1160002000BF0BE0134951F8201053
:100F3000104A1268914203D10121104A42F8201050
:100F4000401C0F4909688842EFDB0B490D4A1268C3
:100F500051F82210074A1268914202D10021054A35
:100F6000116000BF704700000000044000E007402F
:100F7000400000203800002090000020B800002031
:100F800030000020340000200EB52A48406900F4EB
:100F90000000C0B1284800F074FA00280DDD694651
:100FA000254800F0FDF99DF800002249C86123485A
:100FB0000068401C2149086005E01E48806920F453
:100FC00000001C4988611B48406900F4800028B17A
:100FD0001848806920F480001649886115484069E6
:100FE00000F4001020B31348C069C0B20290144846
:100FF000029900F008FA13480068C8B10DE001A991
:101000000F4800F0CDF99DF804100F480268006801
:10101000401C0D4B18600D488154094800F031FA0E
:10102000002805DD08480068064909688842E6D3BB
:101030000EBD000000A00640BCD8FF1F5CC0FF1F13
:101040009CD8FF1F58C0FF1F54C0FF1F9CCCFF1F20
:101050000EB52A48406900F40000C0B1284800F0ED
:1010600010FA00280DDD6946254800F099F99DF831
:1010700000002249C86123480068401C21490860DB
:1010800005E01E48806920F400001C4988611B4867
:10109000406900F4800028B11848806920F480007D
:1010A000164988611548406900F4001020B31348C0
:1010B000C069C0B202901448029900F0A4F9134824
:1010C0000068C8B10DE001A90F4800F069F99DF86A
:1010D00004100F4802680068401C0D4B18600D4852
:1010E0008154094800F0CDF9002805DD0848006862
:1010F000064909688842E6D30EBD000000B00640EC
:10110000CCD8FF1F70C0FF1FACD8FF1F6CC0FF1FE3
:1011100068C0FF1F9CD4FF1F40F201100649086001
:1011200006480749486100BF05480069C0F30360ED
:101130000628F9D17047000004420640120001065B
:101140000040064040F201100D49086024200D497E
:10115000C1F8080100BF0A48001F006800F4000041
:101160000028F8D101200649091F086000BF044883
:10117000001F006800F080700028F8D07047000061
:10118000044106400040064000BF1648006800F4D5
:1011900000000028F9D11348006820F0010011492F
:1011A0000860081D006840F2023108430D49091D1E
:1011B00008604FF4C010091D086000BF09480068AE
:1011C00000F400000028F9D10648006840F0010052
:1011D0000449086000BF0348006800F080700028E0
:1011E000F9D07047004606400B48006840F4700094
:1011F000094908600948006820F0804007490860F4
:101200000748084948600846406842F220100860D4
:101210004FF6FF708860704788ED00E034EF00E023
:1012200020C528D90020054030B502460021002302
:1012300021480068012801D0C81E30BD002108E007
:101240001E4850F82100904202D16FF00100F4E7EF
:10125000491C1B4800688142F2DB194800680A28D3
:1012600009DA174804680068401C154D28601348C7
:1012700040F8242002E04FF0FF30DEE7002115E0C7
:10128000002912DD0D4850F82140481E0B4D55F83D
:101290002000844209DD284650F82100984204DDF0
:1012A000284650F8213007480160491C044800686E
:1012B0008142E5DB0020C0E73C00002090000020D8
:1012C000300000203400002070B50546002400BF27
:1012D00028E0184850F82400A84222D1164B1B6879
:1012E0001B1B5B1E9A00134B03EB8403191D114B50
:1012F00003EB8400FFF705FA0F4B1B681B1B5B1EFB
:101300009A000E4B03EB8403191D0C4B03EB840076
:10131000FFF7F7F908480068401E074908600020F9
:1013200070BD641C044800688442D2DB4FF0FF307B
:10133000F6E700009000002030000020B8000020F8
:1013400010B502464FF0FF30002100BF0DE00A4B00
:1013500053F82130934207D1084B53F82100002362
:10136000064C44F8213010BD491C054B1B689942BE
:10137000EDDB00BFF7E7000090000020B800002080
:10138000300000200448054948604FF6FF7088602F
:101390004FF404500860704720C528D9002005404C
:1013A00010B503460C46184600F0B2F8022801D1E9
:1013B000032010BDD3E90001405C20705868401C38
:1013C000D96890FBF1F201FB120058600220F0E7AF
:1013D00010B503460C46184600F0A3F8022801D1C8
:1013E000032010BDD3E9000101EB410110F82100F9
:1013F00020705868401CD96890FBF1F201FB120084
:1014000058600220EDE713B581B00446204600F095
:1014100091F8022804D169462046FFF7C1FF00BFBA
:10142000A168206808449DF808100170A068401C5D
:10143000E16890FBF1F201FB1200A06002201EBDEA
:101440001FB583B00446204600F083F8022804D17B
:1014500069462046FFF7BCFF00BFA16801EB4101D0
:10146000206800EB81009DF810100170A068401CFE
:10147000E16890FBF1F201FB1200A060022007B0CE
:1014800010BD0146D1E90120801ACA68104490FBC2
:10149000F2F302FB1300704770B504460D46284670
:1014A000FFF72AF82060206808B9012070BD0020ED
:1014B0006060A060E56000BFF8E7000008B5104A72
:1014C0001268009200210F4A0F4B9A4213D000205D
:1014D00006E00D4A52F820200A4B43F82020401C19
:1014E0000A4A084BD21AB0EB920FF2D31A465DF8B3
:1014F00021301A6003E0044A5DF821301A6008BD0B
:10150000F0230000000000000000000000C0FF1FEA
:101510000146D1E90102904201D102207047032027
:10152000FCE70146D1E90102904201D10220704757
:101530000320FCE701468868401CCA6890FBF2F370
:1015400002FB13004A68904201D102207047032039
:10155000FCE701468868401CCA6890FBF2F302FB76
:1015600013004A68904201D1022070470320FCE733
:1015700010B5FFF7BDFA2948006840F4807027498C
:1015800008600846C06840F48070C86024488068DD
:1015900040F48070224988600846C06840F480703A
:1015A000C8600846406940F480704861012200210B
:1015B0000420FFF7C5FA002203210420FFF7C0FA38
:1015C000012202210520FFF7BBFA01220321052099
:1015D000FFF7B6FA012204210846FFF7B1FA01220B
:1015E00005210846FFF7ACFA012200210420FFF78D
:1015F00043FB012203210420FFF73EFB01220221CD
:101600000520FFF739FB012203210520FFF734FBFA
:10161000012205210846FFF72FFB10BD00C0044042
:1016200000D00440FFF7AEFEFFF78CFDFFF7ACFDE6
:10163000FFF772FDFFF79CFF4FF41651002000F0FA
:1016400067F84FF4E131012000F062F8012000F06A
:101650006BF9002000F068F900BF00F001F8FCE72A
:1016600070B59AB026A4642101A8FFF77CF8002089
:101670000090002524480068B8B94FF4FA70FFF7CD
:10168000D3FD0546681C18B94FF0FF301AB070BD85
:1016900001201D4908602046FEF784FF06466B4680
:1016A00032462146012000F05FFA6B46642201A910
:1016B000012000F08FF9002612E0022213A101A8F8
:1016C000FEF78FFF58B100200F4908604FF4FA7001
:1016D000FFF7FAFD012000F017FA0120D6E7761C8B
:1016E00000988642E9DB4FF4FA70FFF729FE0546C1
:1016F000012D02D10020044908600020C6E7000047
:1017000041540A0D0000000030C0FF1F4F4B000085
:101710002DE9F0412DED0A8B8AB004460E460025D6
:10172000A846002724226C4901A8FEF7EAFF012CF5
:1017300006D02CB1681E0AB0BDEC0A8BBDE8F08162
:1017400054B9664801686648FFF7A6FE6348016819
:101750006448FFF7A1FE09E0604801686248FFF7AE
:101760009BFE5E4801686148FFF796FE01206049D4
:1017700008706049087002205F4908705F4908706E
:10178000002544E001A850F82500B0423ED1082DC4
:1017900039D2DFE805F0040506070830340900BF38
:1017A00000BF00BF00BF00BF0F27781C00F09FFCE8
:1017B00041EC1A0B304600F0B1FC41EC1C0B53EC31
:1017C0001C2B9FED4F0B51EC100B00F009FB41EC73
:1017D0001B0B53EC1A2B00F003FB41EC190B9FED94
:1017E0004A0B53EC102B00F053FA41EC180B00F0AD
:1017F0004FFC804608E004274FF00E0804E0012764
:101800004FF0170800E000BF00BF02E06D1C092D7B
:10181000B8DB00BF0C2D02D16FF001008BE794B94B
:101820003B48006840F080403A49C1F824013A48FA
:10183000806840F4C060384988600846C06840F459
:10184000C060C86014E0012C12D131480830006833
:1018500040F080402F49C1F82C013048006A40F424
:1018600000702E4908620846406A40F400704862E1
:1018700004F16A00274951F8200020F0804104F16A
:101880006A00244A42F82010114651F8200040F026
:10189000844104F16A0042F8201064B9C8F30C00D6
:1018A0004FF0F85101EA076108431D4908614FF400
:1018B000402088610DE0012C0BD1C8F30C004FF0E3
:1018C000F85101EA07610843164908614FF44020C6
:1018D000886100202FE70000CC23000078C0FF1FA4
:1018E0009CD8FF1FBCD8FF1FACD8FF1FCCD8FF1F50
:1018F00051C0FF1F64C0FF1F52C0FF1F65C0FF1F04
:101900000000000080845E41000000000000E03F15
:1019100024510640005006400090044000B00440AE
:1019200000A0064000B0064010B5014621B10129D3
:1019300002D04FF0FF3010BD31B92148806940F42A
:1019400000101F4A906107E0012905D11D488069F8
:1019500040F400101B4A90611F2202EB4100C217A5
:1019600000EBD2625211A0EB421301229A40164BB7
:101970001F2404EB4104641143F824201F2202EBCE
:101980004100C21700EBD2625211A0EB42130122B8
:101990009A401F2303EB41035B119B0003F1E023FB
:1019A000C3F800210A2209481F2303EB4103C25454
:1019B000074800780843064A10700020BBE7000083
:1019C00000A0064000B0064080E200E000E400E035
:1019D00050C0FF1F2DE9F04105460F4614461E4634
:1019E0004FF0FF383D480068844202DD4046BDE8C4
:1019F000F081002D37D13A48406900F4002028B129
:101A00003748406940F4002035494861354800684E
:101A100028B9344804600020334908701FE0334877
:101A200000683049096888420DD12246304938465D
:101A3000FEF722FE00202B4908602C490860012097
:101A4000294908700BE02948006840B12748284917
:101A500002683846FEF710FE2448006830602248CD
:101A600090F8008038E0012D36D12248406900F41A
:101A7000002028B11F48406940F400201D494861FA
:101A80001D48006828B91C48046000201B490870E4
:101A90001FE01B4800681849096888420DD122469A
:101AA00018493846FEF7E8FD00201349086014493C
:101AB00008600120114908700BE01148006840B12E
:101AC0000F48104902683846FEF7D6FD0C480068FA
:101AD00030600A4890F80080404688E778C0FF1FD1
:101AE00000A0064058C0FF1F51C0FF1F54C0FF1F79
:101AF0009CCCFF1F00B006406CC0FF1F64C0FF1FDE
:101B000068C0FF1F9CD4FF1F10B5044664B90020B5
:101B10000D4908600D49086001200D4908708102D7
:101B20000C48FEF720FE0DE0012C0BD100200A49E5
:101B300008600A49086001200949087081020948C3
:101B4000FEF711FE10BD000058C0FF1F54C0FF1F5C
:101B500051C0FF1F9CCCFF1F6CC0FF1F68C0FF1F40
:101B600064C0FF1F9CD4FF1F2DE9F84306460F46B3
:101B7000154698464FF0FF393A480068854202DD25
:101B80004846BDE8F8830024002E33D1364800686B
:101B9000B0B93548056000203449087000BF06E040
:101BA000385D009032480099FFF72DFC641CAC4270
:101BB000F6DB3048806940F400002E49886115E06A
:101BC000294800682C490968884208D10020264924
:101BD00008602949086001202449087006E0264869
:101BE000006818B124480068C8F80000234890F83D
:101BF000009034E0012E32D121480068B0B920486D
:101C0000056000201D490870002406E0385D009042
:101C10001C480099FFF7F7FB641CAC42F6DB1A483E
:101C2000806940F400001849886115E01448006894
:101C300016490968884208D10020114908601349F3
:101C4000086001200D49087006E01048006818B1CE
:101C50000E480068C8F80000084890F80090484610
:101C60008FE7000078C0FF1F60C0FF1F52C0FF1F3A
:101C7000BCD8FF1F00A006405CC0FF1F65C0FF1F4F
:101C800074C0FF1FCCD8FF1F00B0064070C0FF1FFC
:101C900010B591EA030F48BF83F0004300F1AE8214
:101CA000841A71EB030C05D2121943EB0C03001BD1
:101CB00061EB0C01DFF824E14FEA1154A4EB135C53
:101CC0001EEA430F18BF9EEA445F73D023EA0E0357
:101CD000DCF1200E21EA045143F4801332D322FABE
:101CE0000CFE10EB0E0023FA0CFE41EB0E01CCF1C2
:101CF000200E03FA0EFE10EB0E0051F10001B1F5BB
:101D0000801FCCF1200E32D201EB045112FA0EF2F8
:101D1000BDE8104058BF7047401C38BF5FEA420220
:101D200018BF7047002814BF20F0010041F10001E6
:101D30004FEA410313F5001F38BF7047A1F1C041BE
:101D400000F04DBA012A43EB0302ACF1200CDCF1A8
:101D50001F0E32BF4FF0000E23FA0CF310EB0300FE
:101D600041EB0451B4EB115FD0D0A1EB045101F56C
:101D7000801149085FEA300001EB04510ED350F1A5
:101D8000000038BF12FA0EFE08D1BDE81040C9E7C6
:101D9000401C38BF5FEA4202CAD1C3E7BDE8104029
:101DA0004FEA410313F5001F38BF7047A1F1C0414E
:101DB00000F015BA9EEA445F08D011EA5E0FBDE854
:101DC000104004BF01F0004100207047BDE8104002
:101DD00070B500F0B6F900BF64FBBE3E0000E0FF46
:101DE0002DE9C04130B4DFF8A0C23CEA111418BF9D
:101DF0003CEA131400F0EC8081EA03051CEA11149C
:101E000044EAD57418BF1CEA131500F0C780A4EB90
:101E100005044FF0004545EAC12145EAC32341EAE4
:101E2000505143EA525304F17F74994204F500344F
:101E30004FEAC0204FEAC22208BF904200F09C80C7
:101E40004FEA13650FF24016765D4FEA134506FB25
:101E500005F7C7F1807706FB07F74FEAD737A7FBEF
:101E600003687642C8F58038A7FB06CE38BFA8F1D4
:101E7000010807FB08E64FF0000EA6FB028CE6FB0C
:101E800003CEDCF1000CCEF1004E38BFAEF1010EF6
:101E9000A6FB0C584FF000074FF00005E6FB0E873D
:101EA000A1FB08C6A0FB07CE16EB0E0645F1000508
:101EB000E1FB076515F1E04E7EBFA4F580345FEAD3
:101EC00046066D4116F1800745F100054FEA1727D8
:101ED0004FEA066647EA0567A6F1DE46B6F1805F7F
:101EE0004FEA15251FD9384624F0010C05EBC471C3
:101EF000BCF1FE6F01EB0C1102D8F0BCBDE8008113
:101F000024425CBF01F5801E9EEAC47F02D4F0BC6F
:101F1000BDE80081244238D4F0BCA1F1C041BDE845
:101F2000004100F05CB94FEAD22242EA43524FEA44
:101F3000D323A7FB02864FEAD02040EA415007FB9B
:101F400003661EEA0E0F4FEAD12105FB026658BF59
:101F5000A6EB0056B6EB00564FEA520E4EEAC37E91
:101F600018EB0E0E56EB530EBDD518EB02085E4172
:101F70007F1C55F10005B6E74FF480154FF00007C0
:101F80004FF000064FF00008ADE7F0BC4FF0000046
:101F900001F1C04101F00041BDE8008111EA0C1FD0
:101FA0000CEA131500D00CE013EA0C1F00F025809A
:101FB0004FF00000F0BC81EA030101F00041BDE8F0
:101FC0000081F0BCBDE8004181EA030100F007B9DF
:101FD000F0BCBDE8004170B500F0B3F8097EFC3EEE
:101FE00000F007B881EA03014FF0000001F0004162
:101FF000704781EA030100F0F2B8F0BCBDE800418F
:102000004FF0000021497047FFFDFBF9F7F5F4F2AE
:10201000F0EEEDEBE9E8E6E4E3E1E0DEDDDBDAD883
:10202000D7D5D4D3D1D0CFCDCCCBCAC8C7C6C5C4E1
:10203000C2C1C0BFBEBDBCBBBAB9B8B7B6B5B4B3F8
:10204000B2B1B0AFAEADACABAAA9A8A8A7A6A5A4E3
:10205000A3A3A2A1A09F9F9E9D9C9C9B9A999998A7
:102060009797969595949393929191908F8F8E8E4A
:102070008D8C8C8B8B8A89898888878786858584D7
:1020800084838382828181800000FF070000F87FC3
:102090004FEA41034FEA5353A3F58063D3F11E0384
:1020A000C8BFD3F1210C0CDD4FF0004242EAC1223F
:1020B00042EA505232FA03FC8CEAE17CACEBE1706C
:1020C0007047102BC4BF0020704703F5787CBCF12B
:1020D000FF3F04D06FF0004282EA2100704770B5E4
:1020E00000F02FF84992248000207047F2E710F0AA
:1020F000004248BF4042B0FA80F310FA03F10AD020
:10210000C3F11D0303F580634FEA415002EB035214
:1021100002EBD12170474FF000007047B0FA80F316
:1021200010FA03F10AD0C3F11D0303F580634FEAEF
:1021300041504FEA035202EBD12170474FF00000AB
:1021400070470EF1020E2EF0030E5EF8046B36425D
:1021500005D4012A43EB030515F5001F12D8012809
:1021600041EB010C1CF5001F0CD80ED14FEAD17CBD
:1021700015F5001F0CEB4C0C0CF1020C08BF4CEBDE
:10218000D37C04E04FF0080C01E04FEAD37C0CEB69
:102190004C0526FA05F606F00706B6F1040C06D241
:1021A0000EEB860CBDE870404CF0010C6047DFE898
:1021B0000CF0090B02024FF000414FF00000A1F5B6
:1021C000002170BD19461046012851EB010418BFCB
:1021D000D4F5001484BF002001F0004170BD080850
:1021E000A0F500114FEA31017047000010B591EAE7
:1021F000030F48BF83F000433FF552AD841A71EBE3
:10220000030C07D212198CF0004C43EB0C03001B9B
:1022100061EB0C01DFF8A4E14FEA1154A4EB135C6D
:102220001EEA430F18BF9EEA445F00F0B08023EA25
:102230006E03524221EA0451C3EB6E0338BF5B1EAA
:10224000DCF1200E25D322FA0CFE10EB0E0043FA2F
:102250000CFE41EB0E01CCF1200E03FA0EFE10EB4A
:102260000E0051F10001CCF1200E29D412FA0EF229
:1022700001EB0451BDE8104058BF7047401C1CBF23
:10228000B2F1004F704700280CBF491C20F001003C
:10229000704712EB020E43EB030218BF4FF0010E22
:1022A0004EEA4202ACF1200CDCF11E0E54D943FA86
:1022B0000CFE10EB0E0051F1FF31CCF11E0ED5D506
:1022C0000EF1010E12FA0EFE404141EB010101EB4D
:1022D000445C5FEA5C5C10D910EBDE7001EB0451EA
:1022E00038BFBEF1004FBDE8104018BF704700284E
:1022F0000CBF491C20F00100704730D24FEAD42CAB
:1023000011F5001124F400641BD0B1FA81F20B3AEC
:10231000A41AA41ED2F12003914030FA03F319430A
:10232000904001EBCC71002C01EB0451BDE8104052
:10233000A8BF704701F1C0414FF0000001F000411B
:102340007047B0FA80F310FA03F100D110BDE41A1F
:10235000173C4805C90AE4E701EB045110BD4910D8
:1023600001EB0451BDE810404FEA300002E04FF0AD
:10237000000170474A0008BF0042F8D0B2F5001FC4
:1023800028BF704701F000414FF0000070479EEAFF
:10239000445F07D011EA5E0FBDE8104004BF002182
:1023A00000207047BDE8104070B5FFF7CAFE00BFBF
:1023B00040DFF63E83F00041104670470000E0FF2A
:1023C0004FF04070E1EE100A70470000C0120000AC
:1023D00080250000004B00000096000000E1000096
:1023E00000C2010000840300000807000000000094
:1023F00008ED00E041542B434D47533D223030332C
:1024000031303033373030333330303338303033AD
:1024100032303033303030333930303332303033A3
:10242000373030333330303337220A0D00000000AC
:102430007024000000C0FF1F7C0000004C0400005E
:10244000EC24000000000020540000004C040000B8
:10245000EC2400007CC0FF1FC018000068040000CE
:102460004025000054000020DC000000680400004B
:10247000F42300000000000000000000FFFFFFFF49
:10248000000000000000000000000000000000004C
:10249000000000000000000000000000000000003C
:1024A00000000000640000000000000000000000C8
:1024B000000000000000000000000000000000001C
:1024C000000000000000000000000000000000000C
:1024D00000000000000000000000000000000000FC
:1024E0000000000000000000C80000000000000024
:1024F00000000000000000000000000000000000DC
:102500000000000050C30000A086010048E8010060
:1025100090D0030020A10700C800000000000000C8
:1025200000000000000000000000000000000000AB
:10253000000000000000000000000000000000009B
:0400000500000411E2
:00000001FF
