:020000040000FA
:1000000000300020D5040000E7040000E9040000EF
:10001000EB040000ED040000EF040000000000000D
:10002000000000000000000000000000F1040000DB
:10003000F304000000000000F5040000F7040000D5
:10004000F9040000F9040000F9040000F9040000BC
:10005000F9040000F9040000F9040000F9040000AC
:10006000F9040000F9040000F9040000F90400009C
:10007000F9040000F9040000F9040000F90400008C
:10008000F9040000F9040000F9040000F90400007C
:10009000F9040000F9040000F9040000F90400006C
:1000A000F9040000F9040000F90400006D160000D6
:1000B000F9040000F9040000F9040000FD17000035
:1000C000F9040000C5180000F9040000F90400005C
:1000D000F9040000F9040000F9040000F90400002C
:1000E000F9040000F9040000F9040000F90400001C
:1000F000F9040000F9040000F9040000F90400000C
:10010000F9040000F9040000F9040000F9040000FB
:10011000F9040000F9040000F9040000F9040000EB
:10012000F9040000F904000081170000F904000040
:10013000F9040000F9040000F9040000F9040000CB
:10014000F9040000F9040000F9040000F9040000BB
:10015000F9040000F9040000F9040000F9040000AB
:10016000F9040000F9040000F9040000F90400009B
:10017000F9040000F9040000F9040000F90400008B
:10018000F9040000A5110000B5110000F9040000F9
:10019000F9040000F9040000F9040000F90400006B
:1001A000F9040000F9040000F9040000F90400005B
:1001B000F9040000F9040000F9040000F90400004B
:1001C000F9040000F9040000F9040000F90400003B
:1003F000F9040000F9040000F9040000FFFFFFFF0A
:020000040000FA
:10040000FFFFFFFFFFFFFFFFFFFFFFFFFE7FFFFF7D
:020000040000FA
:1004100000F002F800F04EF80AA090E8000C8244C8
:100420008344AAF10107DA4501D100F043F8AFF2A5
:10043000090EBAE80F0013F0010F18BFFB1A43F0C2
:10044000010318475027000090270000103A24BFEE
:1004500078C878C1FAD8520724BF30C830C144BF29
:1004600004680C607047000000230024002500266B
:10047000103A28BF78C1FBD8520728BF30C148BF07
:100480000B6070471FB502F065FB0748074900F095
:100490008DFA00F0E7FB04000020002101F0ACFF22
:1004A000401C60601FBD0000040100200405002006
:1004B00010B510BDDFF80CD0FFF7E4FF01F028FD08
:1004C00000F0F6FB0030002003B4FFF7F1FF03BC9F
:1004D00000F024FC094872B6094880470948804763
:1004E00062B609480047FEE7FEE7FEE7FEE7FEE7E3
:1004F000FEE7FEE7FEE7FEE7FEE70000000400007F
:100500005D1A0000E51B00001104000070B50646EE
:1005100000F030FA056806F10B0020F00704B44241
:100520009CBF002070BD2B466A68BAB11068A0421B
:1005300010D304F1080188423CBF5068586007D3CB
:100540005168101941601168091B016058601460FE
:10055000101D70BD13465268002AE7D12146284677
:1005600000F010FA0028DED170BD70B50446051FFA
:1005700000F000FA0068002C14BF446870BD002C25
:1005800018BFAC423CBF20466468F8D301680A1823
:10059000AA4218BF456003D12A680546114401608C
:1005A00028684119A1421CBF6C6070BD6168696018
:1005B00021680844286070BD0A460146014800F0E1
:1005C00078BA0000780000202DE9FC5F0E469346C3
:1005D0008046002403212046AFF30080074617B170
:1005E000D7E900918A4631883A46684600F0F0FA29
:1005F0000546401C09D0B8F1000F0FD02919594504
:1006000006D98FB1C7E9009A0EE02846BDE8FC9FE5
:1006100008EB04002A46694600F0A2F830882C4412
:1006200008B1B61CDBE7641E2046EFE740EA010391
:10063000024630B59B0710D14FF0013400E008C2EC
:1006400008C91D1B9D4315EAC41FF8D013F0FF0114
:1006500002F8011B0DD01B0AF8E711F8013B002B33
:1006600002F8013B05D011F8013B002B02F8013BD9
:10067000F3D130BD10B5431C02E010F8011B71B17D
:100680008107FAD14FF0013202C88C1A8C4314EA68
:10069000C211F9D0C01A0A0603D0C01E10BDC01A7C
:1006A00010BD0A0401D0801E10BD0902FCD0401EFE
:1006B00010BD40EA010370B59B072ED14FF0013603
:1006C000042A2AD308C810C99D1B9D43121F15EA8E
:1006D000C61517D0D8B2E1B2401A50EA056110D160
:1006E00098B2A1B2401A50EA05410AD123F07F40E6
:1006F00024F07F41401A50EA052102D1180EA0EBE8
:10070000146070BDA342DBD018BA21BA884201D967
:10071000012070BD4FF0FF3070BD0AB9002070BDE0
:1007200010F8013B11F8014B63B1A3420AD1521EEC
:1007300008D010F8013B11F8014B1BB1A34201D1C5
:10074000521EEDD1181B70BD421E12F8013F002B46
:10075000FBD111F8013B002B02F8013BF9D17047A6
:10076000032A40F2308010F0030C00F0158011F8DD
:10077000013BBCF1020F624498BF11F801CB00F8B5
:10078000013B38BF11F8013BA2F1040298BF00F809
:1007900001CB38BF00F8013B11F0030300F02580C6
:1007A000083AC0F0088051F8043B083A51F804CBED
:1007B000A0E80810F5E7121D5CBF51F8043B40F8B3
:1007C000043BAFF30080D20724BF11F8013B11F8BE
:1007D00001CB48BF11F8012B24BF00F8013B00F802
:1007E00001CB48BF00F8012B704710B5203AC0F08C
:1007F0000B80B1E81850203AA0E81850B1E8185022
:10080000A0E81850BFF4F5AF5FEA027C24BFB1E85E
:100810001850A0E8185044BF18C918C0BDE81040CF
:100820005FEA827C24BF51F8043B40F8043B08BFD8
:100830007047D20728BF31F8023B48BF11F8012B9F
:1008400028BF20F8023B48BF00F8012B70474FF04B
:10085000000200B5134694469646203922BFA0E810
:100860000C50A0E80C50B1F12001BFF4F7AF09071C
:1008700028BFA0E80C5048BF0CC05DF804EB89000D
:1008800028BF40F8042B08BF704748BF20F8022B50
:1008900011F0804F18BF00F8012B704710B50446C7
:1008A00010F0030F08BF11F0030F40F015804FF058
:1008B000013E121FC0F20E8051F8043BA3EB0E0C58
:1008C0002CEA030C1CEACE1C08BF40F8043BF0D015
:1008D000A1F1040102F10402521E08DB11F8013BF0
:1008E000002B00F8013BF7D1114600F091F92046AA
:1008F00010BD00004FF0013C50F8042B51F8043BB0
:100900009A4221D1A2EB0C03934313EACC1317D1E3
:1009100050F8042B51F8043B9A4215D1A2EB0C037A
:10092000934313EACC130BD150F8042B51F8043B3A
:100930009A4209D1A2EB0C03934313EACC13DBD008
:100940004FF00000704700BFD01A01BAB1FA81F130
:1009500001F0180122FA01F0CB40C1F12001DBB215
:10096000C0B2C01A2CFA01F3D11A914311EAC31193
:10097000E6D1704700487047AC00002070477047D0
:100980007047704738B504460A4600206946AFF301
:100990000080002808BF38BD02460099204600F0BC
:1009A00065F9012038BD012000F07AB9F8B5AFF340
:1009B0000080054600200C46102000BF0646A819FE
:1009C000A0420DD9324669460020AFF300800700EF
:1009D00008BF00F065F90098A04218BF0546C41989
:1009E000FFF7C8FF05600746F01D20F00700461915
:1009F000284600F00AF8B44208BFF8BDA21B3146F1
:100A00003868BDE8F84000F031B900210160C0E964
:100A1000011070471020704770B50646484231EA11
:100A200000000FD02A20741C0025307000F01AF945
:100A30000346002253F82500010F000109292BD994
:100A400057312AE0042913D004DC012908D00229F7
:100A500004D109E008290FD0102911D0002070BD61
:100A600000F000F900680EE000F0FCF840680AE0D1
:100A700000F0F8F8806806E000F0F4F8C06802E0E2
:100A800000F0F0F8006928B120F0030050F8041CD1
:100A9000084470BD4CA070BD3031521C082A04F8C7
:100AA000011BC9D36D1C052DC3DB0020207030460F
:100AB00070BD09B14B0901D00020704722B11378F5
:100AC0002A2B02D000F034B8A6E7AFF300802DE95E
:100AD000F0410F468046541C00250026314614F88C
:100AE000010BA0F13002092A03D9A0F16103052B03
:100AF00016D8392801D8104600E05738491C082973
:100B000040EA0616EBD30120A840384203D000F09B
:100B1000A9F840F825606D1C052DDEDB207810B1AA
:100B20000020BDE8F08139464046BDE8F04173E75A
:100B30002DE9F0410C460646154688070AD51146B0
:100B40002248784401F058FC071EEAD000F08AF8E9
:100B50007F1C4760E0070AD029461C4878441A38B1
:100B6000AFF30080071EDCD000F07CF80760600760
:100B70000AD52946154878443438AFF30080071E5B
:100B8000CFD000F06FF8876020070AD529460F48BC
:100B900078444E38AFF30080071EC2D000F062F8F0
:100BA000C760E0060AD52946084878446838AFF39C
:100BB0000080051EB5D000F055F80561214630468D
:100BC000BDE8F04128E7ACE7430000009A200000B0
:100BD00070B516460C46054600F03CF8036893F8DD
:100BE0000101012806D0FF2C0FD8185D68B1012043
:100BF0002C7070BDD3F807013246214603F207136B
:100C000003442846BDE8704018474FF0FF3070BDE0
:100C10004FF000020429C0F0128010F0030C3FF4E2
:100C200018AECCF1040CBCF1020F18BF00F8012B78
:100C3000A8BF20F8022BA1EB0C01FFF70ABE5FEA68
:100C4000C17C24BF00F8012B00F8012B48BF00F83D
:100C5000012B704710B500F005F8001D10BD00BF56
:100C60009917000000487047C40000200346406800
:100C70008C46002818BF88423CBF03464068F8D322
:100C800018681844884207D00CF1030020F00700D0
:100C9000001D411A521A0146081D0A60FFF765BC83
:100CA00010B500F013F8BDE8104000F00AB8704726
:100CB00010B50446AFF300802046BDE81040FFF7B2
:100CC00003BC002801D000F029B8704710B50128F6
:100CD00005D0002103A000F027F8012010BD09A1D4
:100CE000F8E7000053494752544D454D3A204F759F
:100CF00074206F662068656170206D656D6F727914
:100D0000000000003A2048656170206D656D6F72CB
:100D10007920636F727275707465640001491820E0
:100D2000ABBEFEE72600020070B505460C460A2061
:100D300000E06D1C00F011F835B128780028F8D1DA
:100D400002E0641C00F009F814B120780028F8D102
:100D5000BDE870400A20AFF3008008B569468DF801
:100D600000000320ABBE08BD2DE9F04FADF5397D85
:100D700007460E4690466021A1A8FFF768FD8B4804
:100D80000068A0905C2189A8FFF761FD8749091DD3
:100D900003C988918790C82155A8FFF758FD002006
:100DA0005490012053900FF2082A00205290519045
:100DB00050904F904E90C8211CA8FFF748FD002E80
:100DC0007DD1642103A8FFF742FD394603A8FFF750
:100DD0002DFC7BA103A8FFF7B7FC0DF10C083846EA
:100DE000FFF748FC054632232A463946012001F028
:100DF000CBFA0446201E7DDDB34600200290A5E01C
:100E00000298401C02900298B0F57A7F0FDB5046A2
:100E1000FFF730FC054664232A465146002001F0C6
:100E2000B3FA4FF0FF300DF5397DBDE8F08FBBF51B
:100E3000FA7F0CDD3846FFF71DFC05460A232A46DB
:100E40003946012001F0A0FA04464FF0000B54ABE4
:100E5000C82255A9012001F0FDF904465498002844
:100E600033DD00204F9000252BE03846FFF702FCD1
:100E7000801C55A9019048194146019AFFF719FCB9
:100E800010B901204F905195A0A8FFF7F3FB55A989
:100E900001904819A0A9019AFFF70BFC80B94F985F
:100EA00001280DD105F1040903204F905198A9EBB9
:100EB000000255AB19181CA8FFF7F0FC04E047E04E
:100EC0006D1C54988542D0DB00BF4F9803282FD16A
:100ED00000204F901CA8FFF7CDFB05461CA8FFF78C
:100EE000C9FB642302461CA90090002001F04CFAC3
:100EF000019000E02BE0019885420CD05046FFF7AE
:100F0000B9FB6423024651460090002001F03CFAF0
:100F10004FF0FF3087E7002000901CA9384600F012
:100F20000BFF0090C8211CA8FFF791FC00987AE7FE
:100F3000012C05D100205190C82155A8FFF787FC4E
:100F400041F2883000F0EBFD0BF1010B58E72AE08D
:100F5000022E28D13846FFF78DFB054664232A462A
:100F60003946012001F010FA0446201E1BDDC8217D
:100F700055A8FFF76CFC15E054ABC82255A9012019
:100F800001F068F90446549800280BDD55A8FFF7D6
:100F900071FB054664232A4655A9002001F0F4F9A7
:100FA000012040E7E8E700BF3DE70000602B0000BC
:100FB0002073656E64206572726F720A0D00000006
:100FC0000D0A00002DE9F04F8BB033A534A637A7EA
:100FD00039A00A903BA009903DA008903FA007903F
:100FE00041A0069043A0059046A004900FF224185B
:100FF0000FF22C190FF2381A52A003900FF25C1B5B
:1010000065A002901A200190412000904FF0FF341B
:1010100022A200212846FFF7A7FE0446012C05D195
:101020001EA200213046FFF79FFE0446012C05D189
:101030001AA200213846FFF797FE0446012C05D17D
:1010400016A200214046FFF78FFE0446012C05D171
:1010500012A200214846FFF787FE0446012C05D165
:101060000EA200215046FFF77FFE0446012C0FD14F
:101070000AA202215846FFF777FE04464CF2503090
:1010800000F04DFD05A202210298FFF76DFE044617
:101090000BB0BDE8F08F000041540A0D00000000C5
:1010A00041542B4350494E3F0A0D000041542B43FD
:1010B00053510A0D0000000041542B435245473F55
:1010C0000A0D000041542B434F50533F0A0D0000BE
:1010D00041542B434F50533D3F0A0D0041542B4385
:1010E0004F50533D300A0D0041542B434741545457
:1010F0003F0A0D00415444313537373330363831EB
:1011000034383B0041545E535953494E464F45587D
:101110000A0D000041542B434D47463D310A0D0056
:1011200041542B43534D503D2C2C302C380A0D008C
:1011300041542B435343533D2255435332220A0D0E
:1011400000000000222B3836313338303031303057
:10115000353030222C3134350000000041542B430F
:101160004D47533D2230303331303033353030331A
:101170003730303337303033333030333030303352
:101180003630303338303033313030333430303340
:1011900038220A0D00000000353334453445334110
:1011A0000A0D00001FB504466A4601A903A800F015
:1011B00009F81FBD1FB504466A4601A903A800F03F
:1011C00001F81FBD2DE9F04706460D4617460024DD
:1011D000A0465348006BC0F30010002853D050487D
:1011E000C0300068C0F302604E4908604C48C0300F
:1011F0000068C0F380584A48C430006820F060405E
:1012000049490860B8F1000F04D108460068800C15
:10121000306002E04448006830604148C0300068F7
:10122000C0F3034041490860387000240AE03C489C
:10123000803004F1120150F821003D4941F82400AA
:10124000601CC4B2022CF2DB3948006828603848C0
:10125000406868603749306808600846296841601E
:10126000696881600EC8344800F07EFC2C488030EC
:10127000006880B2314908602948D0F808901020F1
:10128000274908634AE02648006BC0F3C0000028E5
:1012900044D02348B0300068C0F3026021490860A0
:1012A0001F48B430006820F060401F49086030607B
:1012B0001B48B0300068C0F303401C490860387018
:1012C00000240AE01648803004F10E0150F8210095
:1012D000174941F82400601CC4B2022CF2DB144808
:1012E00000682860124840686860124930680860E9
:1012F000084629684160696881600EC80E4800F0A0
:1013000033FC07488030006880B20C49086004480C
:10131000D0F8089008200249086300BFBDE8F087B4
:1013200000400240000000200400002008000020CF
:101330000C0000205C000020680000201400002049
:10134000F0B5ADF5017D05460F46164611A11F20EB
:10135000FFF732F900240FE015F8140001A921F875
:1013600014006000401C285C11F8141000EB0120F0
:1013700001A921F81400641C06EBD671B4EB610FCF
:10138000EADB324601A93846FFF71EF90DF5017D6B
:10139000F0BD0000000000002DE9F041ADF5007D3A
:1013A00006460D464FF0000810A11F20FFF704F974
:1013B0004FF4FF723146684600F0DAFD074600241C
:1013C0000DE03DF814000212404608F101082A54CD
:1013D0001DF81420404608F101082A54641CBC4240
:1013E000EFD378000DF5007DBDE8F081000000002E
:1013F0001148006840F080401049C1F824010846B7
:10140000D0F8280140F08040C1F828010846D0F803
:101410002C0140F08040C1F82C010846D0F8300182
:1014200040F08040C1F830010846D0F8340140F067
:101430008040C1F8340170472451064000500640F6
:1014400030B506287CD2DFE800F086031B334F6BF3
:101450004FF48073414D45F82130012A07D1404BAC
:101460005B6901248C4023433D4C636107E032B942
:101470003B4B5B6901248C40A343394C63616BE0B7
:101480004FF48073374D45F82130012A07D1344B92
:101490005C6D01238B401C43314B5C6507E032B926
:1014A0002F4B5C6D01238B409C432D4B5C6553E0BF
:1014B0004FF480732C4D45F82130012A09D1284B77
:1014C00094331C6801238B401C43254BC3F8944084
:1014D00009E042B9224B94331B6801248C40A3439A
:1014E0001F4CC4F8943037E04FF480731F4D45F81B
:1014F0002130012A09D11A4BD4331B6801248C40B6
:101500002343174CC4F8D43009E042B9144BD43308
:101510001C6801238B409C43114BC3F8D4401BE053
:101520004FF48073124D45F82130012A09D1114B37
:101530001C6801238B401C43094BC3F8144109E08C
:1015400009E03AB90B4B1C6801238B409C43044BC8
:10155000C3F8144100E000BF00BF30BD009004405C
:1015600000F00F4000A0044000B0044000C0044060
:1015700000D0044014F10F4010B506286ED2DFE809
:1015800000F06D0316294057012A07D1354B5B68DF
:1015900001248C402343334C636007E032B9314B64
:1015A0001B6801248C4023432E4C236057E0012A02
:1015B00007D12C4B5B6C01248C402343294C636482
:1015C00007E032B9274B1C6C01238B401C43254B91
:1015D0001C6444E0012A09D1224B84331C68012396
:1015E0008B401C431F4BC3F8844009E042B91D4B9C
:1015F00080331B6801248C4023431A4CC4F880308C
:101600002DE0012A09D1174BC4331B6801248C40FB
:101610002343144CC4F8C43009E042B9114BC03321
:101620001B6801248C4023430E4CC4F8C03016E0E4
:10163000012A08D10C4B1B6801248C402343094C20
:10164000C4F8043109E042B9074B1B1F1C68012391
:101650008B401C43034BC3F8004100E000BF00BFB8
:1016600010BD000000F00F4004F10F402DE9FE43D3
:1016700081464FF000080025002700243948C06D3E
:10168000C0F3024637484069C0F34000002836D016
:10169000AEB33448406900F480500121B1EB500FE3
:1016A0002DD13048D0F8748000BF09E0E00028FA5E
:1016B00000F0C0B202902C48029900F038FA641C85
:1016C000B442F3DB29480068C8B10DE001A92648FF
:1016D00000F0F2F99DF80410254802680068401CEB
:1016E000234B1860234881541F4800F05EFA0028FD
:1016F00005DD1F4800681D4909688842E6D319487E
:10170000406900F0010058B3002414E01A4800F0CA
:101710004CFA00280EDD6946174800F0CDF99DF817
:101720000000E1008840054314480068401C13494C
:1017300008600127641C042CE8DB37B109484566C2
:10174000406940F00100074948610B4800F02DFA5C
:10175000002805DC0348806920F001000149886108
:10176000BDE8FE8300D0024048C0FF1F18C0FF1F25
:1017700014C0FF1F68C4FF1F58C0FF1F0CC0FF1F0D
:101780001848006800F0800050B31649096841F01D
:101790008001144A116014490968491C124A1160F9
:1017A000002000BF0BE0114951F820100E4A1268CA
:1017B000914203D101210E4A42F82010401C0D49EC
:1017C00009688842EFDB09490B4A126851F8221078
:1017D000054A1268914202D10021034A116000BFFC
:1017E00070470000000004403800002068C8FF1F58
:1017F00090C8FF1F30000020340000200EB52A489A
:10180000406900F40000C0B1284800F0CEF900287B
:101810000DDD6946254800F04FF99DF8000022498A
:10182000C86123480068401C2149086005E01E4843
:10183000806920F400001C4988611B48406900F45D
:10184000800028B11848806920F48000164988611A
:101850001548406900F4001020B31348C069C0B2B5
:1018600002901448029900F062F913480068C8B168
:101870000DE001A90F4800F01FF99DF804100F4872
:1018800002680068401C0D4B18600D4881540948DF
:1018900000F08BF9002805DD084800680649096852
:1018A0008842E6D30EBD000000A00640D8D8FF1F36
:1018B00028C0FF1FB8D8FF1F24C0FF1F20C0FF1F74
:1018C000B8CCFF1F0EB52A48406900F40000C0B133
:1018D000284800F06AF900280DDD6946254800F027
:1018E000EBF89DF800002249C86123480068401CBD
:1018F0002149086005E01E48806920F400001C4969
:1019000088611B48406900F4800028B1184880694C
:1019100020F48000164988611548406900F40010E1
:1019200020B31348C069C0B202901448029900F075
:10193000FEF813480068C8B10DE001A90F4800F097
:10194000BBF89DF804100F4802680068401C0D4B5E
:1019500018600D488154094800F027F9002805DD7A
:1019600008480068064909688842E6D30EBD0000B1
:1019700000B00640E8D8FF1F3CC0FF1FC8D8FF1FBB
:1019800038C0FF1F34C0FF1FB8D4FF1F40F2011042
:101990000649086006480749486100BF05480069D4
:1019A000C0F303600628F9D17047000004420640E6
:1019B000120001060040064040F201100D49086087
:1019C00024200D49C1F8080100BF0A48001F006823
:1019D00000F400000028F8D101200649091F086022
:1019E00000BF0448001F006800F080700028F8D095
:1019F00070470000044106400040064000BF164802
:101A0000006800F400000028F9D11348006820F0B5
:101A1000010011490860081D006840F202310843C6
:101A20000D49091D08604FF4C010091D086000BF72
:101A30000948006800F400000028F9D10648006851
:101A400040F001000449086000BF0348006800F04E
:101A500080700028F9D07047004606400B480068A7
:101A600040F47000094908600948006820F080408F
:101A7000074908600748084948600846406842F23C
:101A8000201008604FF6FF708860704788ED00E016
:101A900034EF00E020C528D900200540044805495E
:101AA00048604FF6FF7088604FF40450086070473C
:101AB00020C528D90020054010B503460C4618461D
:101AC00000F0BAF8022801D1032010BDD3E90001CB
:101AD000405C20705868401CD96890FBF1F201FB13
:101AE000120058600220F0E710B503460C46184675
:101AF00000F0ABF8022801D1032010BDD3E90001AA
:101B000001EB410110F8210020705868401CD96891
:101B100090FBF1F201FB120058600220EDE701B5E5
:101B200000BF0098411E00910028FAD108BD13B5EE
:101B300081B00446204600F091F8022804D169469D
:101B40002046FFF7B9FF00BFA168206808449DF850
:101B500008100170A068401CE16890FBF1F201FBE5
:101B60001200A06002201EBD1FB583B004462046AF
:101B700000F083F8022804D169462046FFF7B4FF3D
:101B800000BFA16801EB4101206800EB81009DF8D6
:101B900010100170A068401CE16890FBF1F201FB9D
:101BA0001200A060022007B010BD0146D1E901205B
:101BB000801ACA68104490FBF2F302FB13007047CE
:101BC00070B504460D462846FEF7A0FC206020684C
:101BD00008B9012070BD00206060A060E56000BF12
:101BE000F8E7000008B5104A1268009200210F4A79
:101BF0000F4B9A4213D0002006E00D4A52F82020E5
:101C00000A4B43F82020401C0A4A084BD21AB0EB7A
:101C1000920FF2D31A465DF821301A6003E0044AAD
:101C20005DF821301A6008BD902B00000000000014
:101C30000000000000C0FF1F0146D1E901029042F0
:101C400001D1022070470320FCE70146D1E90102DF
:101C5000904201D1022070470320FCE701468868CA
:101C6000401CCA6890FBF2F302FB13004A689042E2
:101C700001D1022070470320FCE701468868401C20
:101C8000CA6890FBF2F302FB13004A68904201D14C
:101C9000022070470320FCE710B5FFF7A9FB24489A
:101CA000006840F48070224908600846C06840F42B
:101CB0008070C8601F48806840F480701D4988604B
:101CC0000846C06840F48070C8600846406940F427
:101CD00080704861012200210420FFF7B1FB00223F
:101CE00003210420FFF7ACFB012202210520FFF7AE
:101CF000A7FB012203210520FFF7A2FB01220521FA
:101D00000846FFF79DFB012200210420FFF734FC69
:101D1000012202210520FFF72FFC012203210520CB
:101D2000FFF72AFC012205210846FFF725FC10BD1C
:101D300000C0044000D004402DE9F04F89B00546B2
:101D40000C4645A646A70FF224184BA008904DA0BC
:101D500007904FA0069051A0059053A0049055A065
:101D6000039058A002900FF26C190FF2741A0FF240
:101D7000801B31462846FEF7BDFD60B9022261A1F5
:101D8000A01DFEF796FC18B9012009B0BDE8F08F40
:101D90004FF0FF30F9E739462846FEF7ABFD58B95A
:101DA000052259A104F11300FEF783FC08B90120B4
:101DB000EBE74FF0FF30E8E741462846FEF79AFD93
:101DC000A8B9207C0190607C0090019801280BDB71
:101DD0000098082808DB02224AA104F11900FEF746
:101DE00068FC08B90120D0E74FF0FF30CDE7494645
:101DF0002846FEF77FFD58B9022242A104F10D00EA
:101E0000FEF757FC08B90120BFE74FF0FF30BCE7F1
:101E100051462846FEF76EFD58B9022239A104F159
:101E20001100FEF746FC08B90120AEE74FF0FF3085
:101E3000ABE759462846FEF75DFD58B9022231A1AD
:101E400004F11200FEF735FC08B901209DE74FF0C0
:101E5000FF309AE700BF98E741540A0D00000000E8
:101E600041542B4350494E3F0A0D000041542B432F
:101E700053510A0D0000000041542B435245473F87
:101E80000A0D000041542B434F50533F0A0D0000F0
:101E900041542B434F50533D3F0A0D0041542B43B7
:101EA0004F50533D300A0D0041542B434741545489
:101EB0003F0A0D004154443135373733303638311D
:101EC00034383B0041545E535953494E464F4558B0
:101ED0000A0D000041542B434D47463D310A0D0089
:101EE00041542B43534D503D2C2C302C380A0D00BF
:101EF00041542B435343533D2255435332220A0D41
:101F0000000000004F4B00005245414459000000C2
:101F1000ADF5006DFFF7C2FDFFF74EFDFFF76EFD5B
:101F2000FFF734FDFFF7B8FE4FF41651002000F024
:101F300031F84FF4E131012000F02CF8012000F0DD
:101F400033F900BF07A40DF580612046FFF724FA9E
:101F500005462A4669460DF58060FFF7F1F9FFF75F
:101F600031F8EFE731353737333036383134380030
:101F700030B50346144607E011F8015B23F8025B15
:101F800015B9101B401E30BD601E041EF4DA101B74
:101F9000F9E700002DE9F0412DED0A8B8AB00446E7
:101FA0000E460025A846002724226B4901A8FEF70B
:101FB0001CFC012C06D02CB1681E0AB0BDEC0A8BAB
:101FC000BDE8F08154B9654801686548FFF7F8FD40
:101FD000624801686348FFF7F3FD09E05F48016864
:101FE0006148FFF7EDFD5D4801686048FFF7E8FDD7
:101FF00001205F4908705F4908705F4908705F49B8
:102000000870002544E001A850F82500B0423ED1F8
:10201000082D39D2DFE805F0040506070830340939
:1020200000BF00BF00BF00BF00BF0F27781C00F03B
:1020300028FC41EC1A0B304600F03AFC41EC1C0B3A
:1020400053EC1C2B9FED4E0B51EC100B00F092FA51
:1020500041EC1B0B53EC1A2B00F08CFA41EC190BE2
:102060009FED490B53EC102B00F0DCF941EC180B01
:1020700000F0D8FB804608E004274FF00E0804E08B
:1020800001274FF0170800E000BF00BF02E06D1C01
:10209000092DB8DB00BF0C2D02D16FF001008CE7D9
:1020A00094B93B48006840F080403A49C1F82401A7
:1020B0003948806840F4C060374988600846C06885
:1020C00040F4C060C86014E0012C12D130480830E0
:1020D000006840F080402F49C1F82C012F48006A69
:1020E00040F400702D4908620846406A40F40070D0
:1020F000486204F16A00274951F8200020F080412D
:1021000004F16A00234A42F82010114651F82000D9
:1021100040F0844104F16A0042F8201064B9C8F329
:102120000C004FF0F85101EA076108431C490861AF
:102130004FF4402088610DE0012C0BD1C8F30C0056
:102140004FF0F85101EA07610843164908614FF45E
:1021500040208861002030E76C2B000044C0FF1F46
:10216000B8D8FF1FD8D8FF1FC8D8FF1FE8D8FF1F57
:102170001DC0FF1F30C0FF1F1EC0FF1F31C0FF1F4B
:102180000000000080845E41000000000000E03F8D
:1021900024510640005006400090044000B0044026
:1021A00000A0064000B0064010B5014621B101294B
:1021B00002D04FF0FF3010BD31B92148806940F4A2
:1021C00000101F4A906107E0012905D11D48806970
:1021D00040F400101B4A90611F2202EB4100C2171D
:1021E00000EBD2625211A0EB421301229A40164B2F
:1021F0001F2404EB4104641143F824201F2202EB46
:102200004100C21700EBD2625211A0EB421301222F
:102210009A401F2303EB41035B119B0003F1E02372
:10222000C3F800210A2209481F2303EB4103C254CB
:10223000074800780843064A10700020BBE70000FA
:1022400000A0064000B0064080E200E000E400E0AC
:102250001CC0FF1F2DE9F04105460F4614461E46DF
:102260004FF0FF383D480068844202DD4046BDE83B
:10227000F081002D37D13A48406900F4002028B1A0
:102280003748406940F400203549486135480068C6
:1022900028B9344804600020334908701FE03348EF
:1022A00000683049096888420DD1224630493846D5
:1022B000FEF756FA00202B4908602C4908600120DF
:1022C000294908700BE02948006840B1274828498F
:1022D00002683846FEF744FA244800683060224815
:1022E00090F8008038E0012D36D12248406900F492
:1022F000002028B11F48406940F400201D49486172
:102300001D48006828B91C48046000201B4908705B
:102310001FE01B4800681849096888420DD1224611
:1023200018493846FEF71CFA002013490860144982
:1023300008600120114908700BE01148006840B1A5
:102340000F48104902683846FEF70AFA0C48006840
:1023500030600A4890F80080404688E744C0FF1F7C
:1023600000A0064024C0FF1F1DC0FF1F20C0FF1F8C
:10237000B8CCFF1F00B0064038C0FF1F30C0FF1FA1
:1023800034C0FF1FB8D4FF1FF0B504460D4600212E
:1023900000204FF4FA56734323E084B903E0491C4C
:1023A000994200D3F0BD124E7669C6F3C056002E96
:1023B000F5D00646401CAE5D0D4FFE6111E0012CCC
:1023C0000FD103E0491C994200D3EBE7094E76692F
:1023D000C6F3C056002EF5D00646401CAE5D054F34
:1023E000FE61161EA2F10102D7D100BFDAE700009C
:1023F00000A0064000B0064010B500290AD00878B9
:10240000002807D005487844FEF774FA002801D068
:10241000002010BD0248784410BD0000DE07000017
:10242000D607000010B591EA030F48BF83F00043C0
:1024300000F1AE82841A71EB030C05D2121943EB42
:102440000C03001B61EB0C01DFF824E14FEA11548F
:10245000A4EB135C1EEA430F18BF9EEA445F73D0DF
:1024600023EA0E03DCF1200E21EA045143F4801329
:1024700032D322FA0CFE10EB0E0023FA0CFE41EBD5
:102480000E01CCF1200E03FA0EFE10EB0E0051F1FE
:102490000001B1F5801FCCF1200E32D201EB0451C6
:1024A00012FA0EF2BDE8104058BF7047401C38BF0A
:1024B0005FEA420218BF7047002814BF20F00100F5
:1024C00041F100014FEA410313F5001F38BF704787
:1024D000A1F1C04100F04DBA012A43EB0302ACF177
:1024E000200CDCF11F0E32BF4FF0000E23FA0CF36C
:1024F00010EB030041EB0451B4EB115FD0D0A1EB22
:10250000045101F5801149085FEA300001EB0451E4
:102510000ED350F1000038BF12FA0EFE08D1BDE80C
:102520001040C9E7401C38BF5FEA4202CAD1C3E786
:10253000BDE810404FEA410313F5001F38BF704754
:10254000A1F1C04100F015BA9EEA445F08D011EA3B
:102550005E0FBDE8104004BF01F00041002070474D
:10256000BDE8104070B500F0B6F900BF64FBBE3E98
:102570000000E0FF2DE9C04130B4DFF8A0C23CEA22
:10258000111418BF3CEA131400F0EC8081EA030533
:102590001CEA111444EAD57418BF1CEA131500F0A4
:1025A000C780A4EB05044FF0004545EAC12145EA88
:1025B000C32341EA505143EA525304F17F749942D4
:1025C00004F500344FEAC0204FEAC22208BF90420F
:1025D00000F09C804FEA13650FF24016765D4FEADB
:1025E000134506FB05F7C7F1807706FB07F74FEAAF
:1025F000D737A7FB03687642C8F58038A7FB06CE1D
:1026000038BFA8F1010807FB08E64FF0000EA6FB53
:10261000028CE6FB03CEDCF1000CCEF1004E38BF9D
:10262000AEF1010EA6FB0C584FF000074FF000056D
:10263000E6FB0E87A1FB08C6A0FB07CE16EB0E0635
:1026400045F10005E1FB076515F1E04E7EBFA4F5FD
:1026500080345FEA46066D4116F1800745F10005BA
:102660004FEA17274FEA066647EA0567A6F1DE46F6
:10267000B6F1805F4FEA15251FD9384624F0010CCA
:1026800005EBC471BCF1FE6F01EB0C1102D8F0BC7C
:10269000BDE8008124425CBF01F5801E9EEAC47F34
:1026A00002D4F0BCBDE80081244238D4F0BCA1F1D2
:1026B000C041BDE8004100F05CB94FEAD22242EAD5
:1026C00043524FEAD323A7FB02864FEAD02040EAC9
:1026D000415007FB03661EEA0E0F4FEAD12105FBAE
:1026E000026658BFA6EB0056B6EB00564FEA520EF4
:1026F0004EEAC37E18EB0E0E56EB530EBDD518EB0B
:1027000002085E417F1C55F10005B6E74FF48015C5
:102710004FF000074FF000064FF00008ADE7F0BCA7
:102720004FF0000001F1C04101F00041BDE800811F
:1027300011EA0C1F0CEA131500D00CE013EA0C1F71
:1027400000F025804FF00000F0BC81EA030101F0A9
:102750000041BDE80081F0BCBDE8004181EA030111
:1027600000F007B9F0BCBDE8004170B500F0B3F867
:10277000097EFC3E00F007B881EA03014FF000003B
:1027800001F00041704781EA030100F0F2B8F0BCAB
:10279000BDE800414FF0000021497047FFFDFBF903
:1027A000F7F5F4F2F0EEEDEBE9E8E6E4E3E1E0DE84
:1027B000DDDBDAD8D7D5D4D3D1D0CFCDCCCBCAC8F6
:1027C000C7C6C5C4C2C1C0BFBEBDBCBBBAB9B8B71D
:1027D000B6B5B4B3B2B1B0AFAEADACABAAA9A8A810
:1027E000A7A6A5A4A3A3A2A1A09F9F9E9D9C9C9BDE
:1027F0009A99999897979695959493939291919089
:102800008F8F8E8E8D8C8C8B8B8A89898888878719
:102810008685858484838382828181800000FF078E
:102820000000F87F4FEA41034FEA5353A3F580635A
:10283000D3F11E03C8BFD3F1210C0CDD4FF00042D1
:1028400042EAC12242EA505232FA03FC8CEAE17CAD
:10285000ACEBE1707047102BC4BF0020704703F54C
:10286000787CBCF1FF3F04D06FF0004282EA210087
:10287000704770B500F02FF849922480002070470F
:10288000F2E710F0004248BF4042B0FA80F310FA7D
:1028900003F10AD0C3F11D0303F580634FEA4150F1
:1028A00002EB035202EBD12170474FF0000070475A
:1028B000B0FA80F310FA03F10AD0C3F11D0303F557
:1028C00080634FEA41504FEA035202EBD121704737
:1028D0004FF0000070470EF1020E2EF0030E5EF86E
:1028E000046B364205D4012A43EB030515F5001F9E
:1028F00012D8012841EB010C1CF5001F0CD80ED199
:102900004FEAD17C15F5001F0CEB4C0C0CF1020CBE
:1029100008BF4CEBD37C04E04FF0080C01E04FEA19
:10292000D37C0CEB4C0526FA05F606F00706B6F14B
:10293000040C06D20EEB860CBDE870404CF0010C86
:102940006047DFE80CF0090B02024FF000414FF046
:102950000000A1F5002170BD19461046012851EB79
:10296000010418BFD4F5001484BF002001F0004119
:1029700070BD0808A0F500114FEA31017047000052
:1029800010B591EA030F48BF83F000433FF552AD05
:10299000841A71EB030C07D212198CF0004C43EB34
:1029A0000C03001B61EB0C01DFF8A4E14FEA1154AA
:1029B000A4EB135C1EEA430F18BF9EEA445F00F0CD
:1029C000B08023EA6E03524221EA0451C3EB6E0346
:1029D00038BF5B1EDCF1200E25D322FA0CFE10EB73
:1029E0000E0043FA0CFE41EB0E01CCF1200E03FA6F
:1029F0000EFE10EB0E0051F10001CCF1200E29D497
:102A000012FA0EF201EB0451BDE8104058BF7047B6
:102A1000401C1CBFB2F1004F704700280CBF491C7E
:102A200020F00100704712EB020E43EB030218BFC7
:102A30004FF0010E4EEA4202ACF1200CDCF11E0E0A
:102A400054D943FA0CFE10EB0E0051F1FF31CCF1DA
:102A50001E0ED5D50EF1010E12FA0EFE404141EBCD
:102A6000010101EB445C5FEA5C5C10D910EBDE70A5
:102A700001EB045138BFBEF1004FBDE8104018BF54
:102A8000704700280CBF491C20F00100704730D26D
:102A90004FEAD42C11F5001124F400641BD0B1FAD4
:102AA00081F20B3AA41AA41ED2F12003914030FA0D
:102AB00003F31943904001EBCC71002C01EB04515E
:102AC000BDE81040A8BF704701F1C0414FF00000C1
:102AD00001F000417047B0FA80F310FA03F100D121
:102AE00010BDE41A173C4805C90AE4E701EB04519C
:102AF00010BD491001EB0451BDE810404FEA300011
:102B000002E04FF0000170474A0008BF0042F8D0D1
:102B1000B2F5001F28BF704701F000414FF00000E0
:102B200070479EEA445F07D011EA5E0FBDE810408F
:102B300004BF002100207047BDE8104070B5FFF7CA
:102B4000CAFE00BF40DFF63E83F0004110467047EA
:102B50000000E0FF4FF04070E1EE100A7047000007
:102B60004F4B00004552524F52000000C01200006F
:102B700080250000004B00000096000000E10000EE
:102B800000C20100008403000008070000000000EC
:102B900008ED00E0F42C000000C0FF1F480000001A
:102BA0004C0400003C2D0000000000203C00000010
:102BB0004C0400003C2D000048C0FF1FB01800006E
:102BC00068040000782D00003C000020C8000000D0
:102BD000680400000800000043000000F8FFFFFF49
:102BE000000000001001000043000000F8FFFFFF9C
:102BF0000040404040404040404041414141414010
:102C000040404040404040404040404040404040C4
:102C10004005020202020202020202020202020253
:102C20000220202020202020202020020202020258
:102C300002029090909090901010101010101010B0
:102C400010101010101010101010101002020202BC
:102C50000202888888888888080808080808080800
:102C600008080808080808080808080802020202FC
:102C70004000000000000000000000000000000014
:102C80000000000000000000000000000000000044
:102C90000000000000000000000000000000000034
:102CA0000000000000000000000000000000000024
:102CB0000000000000000000000000000000000014
:102CC0000000000000000000000000000000000004
:102CD00000000000000000000000000000000000F4
:102CE00000000000000000000000000000000000E4
:102CF0000000000064000000000000000000000070
:102D000000000000000000000000000000000000C3
:102D100000000000000000000000000000000000B3
:102D200000000000000000000000000000000000A3
:102D30000000000000000000C800000000000000CB
:102D40000000000000000000000000000000000083
:102D50000000000050C30000A086010048E8010008
:102D600090D0030020A10700C80000000000000070
:082D700000000000000000005B
:0400000500000411E2
:00000001FF
