:020000040000FA
:1000000000380020AD040000E1040000E30400001B
:1000100000000000000000000000000000000000E0
:10002000000000000000000000000000E5040000E7
:100030000000000000000000E7040000E9040000E8
:10004000EB040000EB040000EB040000EB040000F4
:10005000EB040000EB040000EB040000EB040000E4
:10006000EB040000EB040000EB040000EB040000D4
:10007000EB040000EB040000EB040000EB040000C4
:10040000FFFFFFFFFFFFFFFFFFFFFFFFFEFFFFFFFD
:1004100000F002F800F03AF80CA030C808382418B0
:100420002D18A246671EAB4654465D46AC4201D12C
:1004300000F02CF87E460F3E0FCCB6460126334224
:1004400000D0FB1AA246AB463343184728000000F1
:1004500038000000103A02D378C878C1FAD85207A1
:1004600001D330C830C101D504680C60704700006A
:1004700008ED00E01C0C0000C00000201800000087
:10048000540400001FB51FBD10B510BD03488546BC
:10049000FFF7F8FF00F07EFB00F037F8003800208F
:1004A00003B4FFF7F1FF03BC00F038F872B60F4950
:1004B0000F4A521A013A05DD00200423086019444E
:1004C000043AFBDA00BF0B480B4901600A6882F36B
:1004D00008880A4880470A48804762B609480047AA
:1004E000FEE7FEE7FEE7FEE7FEE7FEE7000000208E
:1004F0000038002008ED00E000000000DD0A0000E8
:100500003D0B000011040000704710B50446C046C2
:10051000C0462046FFF7C4FF10BD00000149182067
:10052000ABBEFEE726000200002030490969012227
:10053000920711432D4A11612D4909681206114392
:100540002B4A116011464968012252039143284AFF
:1005500051601146096849004908116000BF2449EB
:100560000968012212061140090E0029F7D021491D
:100570001F4A5160002005E000221D4980318300A0
:10058000CA50401C8028F7D3002008E00021C9434E
:10059000174A1123DB01D2188300D150401C1028C8
:1005A000F4D31549124A1161012292061049803193
:1005B0000A64124A4A641F210D4A116000BF0C49A7
:1005C0000968002901D0012100E000210916002955
:1005D000F5D100BF06490968002901D0012100E0DA
:1005E0000021C9160029F5D170470000805006404F
:1005F000004002408600DB04FFFFFF1F00004414A0
:1006000010B5184A126C07231B061A40120E164B1F
:100610001A60144A526CD200D208144B1A60114A64
:10062000126C0F231B041A40120C114B1A6000208D
:1006300009E00C4A034612339B00D25883000D4C4C
:10064000E250421CD0B20228F3DB064A126892B292
:10065000094B1A60034A803A91681022014B803B93
:100660001A6310BD80400240C0000020C40000207A
:10067000C8000020CC000020D40000200120074941
:10068000086307490548803081600649C160064912
:1006900041600648014980310860704700400240CF
:1006A000332211A577665544000054150000480C0C
:1006B0000F48406A0121890708430D4948620846EE
:1006C000806A890508430A4988620846C06A890524
:1006D00008430749C8620846006B89050843044976
:1006E00008630846406B8905084301494863704721
:1006F0000051064030B5030000F012FA0692041EC5
:100700003C5A7892FF2301338C00474D64192360D3
:10071000012A07D1454B5B6901248C402343434C9C
:10072000636108E0002A06D1404B5B6901248C40DC
:10073000A3433E4C636174E0FF2301338C003C4DC6
:1007400064192360012A09D1384B40335B690124C5
:100750008C402343354C403463610AE0002A08D1C1
:10076000324B40335B6901248C40A3432F4C40340F
:10077000636156E0FF2301338C002E4D6419236022
:10078000012A09D1294B80335B6901248C40234322
:10079000264C803463610AE0002A08D1234B803361
:1007A0005B6901248C40A343204C8034636138E0B2
:1007B000FF2301338C00204D64192360012A09D1E5
:1007C0001A4BC0335B6901248C402343174CC0345F
:1007D00063610AE0002A08D1144BC0335B6901242D
:1007E0008C40A343114CC03463611AE0FF230133F2
:1007F0008C00124D64192360012A07D1104B5B69EC
:1008000001248C4023430E4C636108E0002A06D18A
:100810000B4B5B6901248C40A343094C636100E0EE
:1008200000BF00BF30BD00000090044000F00F404A
:1008300000A0044000B0044000C0044000D00440C8
:1008400000F10F4010B5030000F06AF906740418B7
:1008500030486074012A07D1384B5B6801248C4012
:100860002343364C636008E0002A06D1334B9B6873
:1008700001248C402343314CA3605CE0012A09D160
:100880002E4B40335B6801248C4023432B4C403477
:1008900063600AE0002A08D1284B40339B6801249A
:1008A0008C402343254C4034A36044E0012A09D105
:1008B000224B80335B6801248C4023431F4C8034DF
:1008C00063600AE0002A08D11C4B80339B68012436
:1008D0008C402343194C8034A3602CE0012A09D1B9
:1008E000164BC0335B6801248C402343134CC03447
:1008F00063600AE0002A08D1104BC0339B680124D2
:100900008C4023430D4CC034A36014E0012A07D16E
:100910000B4B5B6801248C402343094C636008E067
:10092000002A06D1064B9B6801248C402343044CCB
:10093000A36000E000BF00BF10BD000000F00F404A
:1009400000F10F400A48806A01218907884308495D
:1009500088620846806A2121490608430449886262
:10096000044805490861032080048861704700003D
:10097000805106403400000F00A0064000BF05492A
:1009800049690122D2051140C90D0029F7D001495A
:10099000C861704700A0064010B50346002403E07C
:1009A000185DFFF7EBFF641C185D0028F8D110BD3F
:1009B00010B5FFF77DFE012211461046FFF79AFEA3
:1009C000012202211046FFF795FE01220321104665
:1009D000FFF790FE012207211046FFF78BFE012250
:1009E00002210846FFF786FE012203210220FFF7BD
:1009F00081FE012211461046FFF724FF0122022149
:100A00001046FFF71FFF012203211046FFF71AFFD0
:100A1000012207211046FFF715FF01220221084697
:100A2000FFF710FF012203210220FFF70BFF0D4803
:100A300000690521090208430A490861084640691E
:100A4000052109020843074948610748006849151C
:100A500008430549086008464068491508430249AB
:100A6000486010BD00D0044000A00440FF200230C8
:100A7000084948600849486008480949486100BF7A
:100A8000074800690F2109060840000E0328F7D126
:100A9000704700000043064000420640010000038A
:100AA00000400640FF2002300B4948603420886037
:100AB00000BF094800680121C90508400028F8D195
:100AC00001200549086000BF0348006801210906AC
:100AD00008400028F8D07047004106400448054906
:100AE00048600846406804480860044888607047C9
:100AF00020C528D90020054020210000FFFF00006C
:100B000004480549486005488860212000020860C3
:100B10007047000020C528D900200540FFFF0000D5
:100B200030B47446641E2578641CAB4204D3635D04
:100B30005B00E31830BC18471D46F8E718B5114AAA
:100B4000126800920021104A104B9A4214D00020E3
:100B500006E082000D4B9A5883000B4CE250401C7B
:100B60000B4A094BD21A92088242F2D81A468B00DD
:100B70006C46E3581A6004E0044A8B006C46E35864
:100B80001A6018BD70040000000000200000000082
:100B9000C0000020FFF7B4FFFFF784FFFFF766FFF8
:100BA000FFF7C2FCFFF704FFFFF7CCFE0BA0FFF737
:100BB000F3FE11A0FFF7F0FEFFF760FD00BF16483F
:100BC000006BC006C00F002803D0FFF719FDFFF728
:100BD00055FD09A0FFF7E0FEF1E7000052756E6ECB
:100BE000696E67204C5055415254206578616D7094
:100BF0006C650A0D00000000496E70757420636812
:100C00006172616374657220746F206563686F2E12
:100C10002E2E0A0D000000000040024000000000DF
:100C200000000000000000000000000000000000C4
:040C300000000000C0
:0400000500000411E2
:00000001FF
